:020000040800F2
:1000000000000520CD170008851400088B14000897
:1000100091140008971400089D14000800000000C7
:100020000000000000000000000000001185000832
:10003000A314000800000000218700088987000839
:100040001D1800081D1800081D1800081D180008BC
:100050001D1800081D1800081D1800081D180008AC
:100060001D1800081D1800081D1800081D1800089C
:100070001D1800081D1800081D1800081D1800088C
:100080001D1800081D1800081D1800081D1800087C
:100090001D1800081D1800081D1800081D1800086C
:1000A0001D1800081D1800081D1800081D1800085C
:1000B0001D1800081D1800081D1800081D1800084C
:1000C0001D1800081D1800081D1800081D1800083C
:1000D0001D1800081D1800081D180008B11400089C
:1000E000C51400081D1800081D1800081D18000878
:1000F0001D1800081D1800081D1800081D1800080C
:100100001D1800081D1800081D1800081D180008FB
:100110001D1800081D180008D51400081D18000837
:100120001D1800081D1800081D1800081D180008DB
:100130001D180008E91400081D1800081D18000803
:100140001D1800081D1800081D180008FD140008DF
:100150001D1800081D1800081D1800081D180008AB
:100160001D1800081D1800081D1800081D1800089B
:100170001D1800081D1800081D18000800000000C8
:100180001D1800081D1800081D1800081D1800087B
:100190001D1800081D1800081D1800081D1800086B
:1001A0001D1800081D1800081D1800081D1800085B
:1001B0001D1800081D1800081D1800081D1800084B
:0801C0001D1800081D180008BD
:1001D00010B5054C237833B9044B13B10448AFF381
:1001E00000800123237010BDE0010020000000000A
:1001F00054D6000808B5034B1BB103490348AFF3BD
:10020000008008BD00000000E401002054D6000872
:10021000034613F8012B002AFBD1181A0138704746
:1002200001F0FF01102A2BDB10F0070F08D010F8A7
:10023000013B013A8B422DD010F0070F42B3F6D1AB
:10024000F0B441EA012141EA014122F007047FF0C4
:1002500000070023F0E80256083C85EA010586EA1B
:10026000010685FA47F5A3FA87F586FA47F6A5FA57
:1002700087F68EB9EED1F0BC01F0FF0102F0070263
:1002800032B110F8013B013A83EA010313B1F8D10E
:100290000020704701387047002D06BF35460338EF
:1002A000073815F0010F07D1013015F4807F02BF28
:1002B000013015F4C03F0130F0BC0138704700BF79
:1002C00081F0004102E000BF83F0004330B54FEA07
:1002D00041044FEA430594EA050F08BF90EA020F74
:1002E0001FBF54EA000C55EA020C7FEA645C7FEA07
:1002F000655C00F0E2804FEA5454D4EB5555B8BF2A
:100300006D420CDD2C4480EA020281EA030382EA9A
:10031000000083EA010180EA020281EA0303362D2C
:1003200088BF30BD11F0004F4FEA01314FF4801CFF
:100330004CEA113102D0404261EB410113F0004F11
:100340004FEA03334CEA133302D0524263EB4303C8
:1003500094EA050F00F0A780A4F10104D5F1200E66
:100360000DDB02FA0EFC22FA05F2801841F10001C1
:1003700003FA0EF2801843FA05F359410EE0A5F195
:1003800020050EF1200E012A03FA0EFC28BF4CF0C6
:10039000020C43FA05F3C01851EBE37101F000457C
:1003A00007D54FF0000EDCF1000C7EEB00006EEB89
:1003B0000101B1F5801F1BD3B1F5001F0CD3490813
:1003C0005FEA30004FEA3C0C04F101044FEA44526A
:1003D00012F5800F80F09A80BCF1004F08BF5FEAF1
:1003E000500C50F1000041EB045141EA050130BDD1
:1003F0005FEA4C0C404141EB0101013C28BFB1F5E3
:10040000801FE9D291F0000F04BF01460020B1FA2D
:1004100081F308BF2033A3F10B03B3F120020CDA00
:100420000C3208DD02F1140CC2F10C0201FA0CF0DE
:1004300021FA02F10CE002F11402D8BFC2F1200C43
:1004400001FA02F120FA0CFCDCBF41EA0C019040F9
:10045000E41AA2BF01EB0451294330BD6FEA040442
:100460001F3C1CDA0C340EDC04F11404C4F120022D
:1004700020FA04F001FA02F340EA030021FA04F33F
:1004800045EA030130BDC4F10C04C4F1200220FA96
:1004900002F001FA04F340EA0300294630BD21FAD4
:1004A00004F0294630BD94F0000F83F4801306BF9A
:1004B00081F480110134013D4EE77FEA645C18BF8E
:1004C0007FEA655C29D094EA050F08BF90EA020F25
:1004D00005D054EA000C04BF1946104630BD91EA1D
:1004E000030F1EBF0021002030BD5FEA545C05D120
:1004F0004000494128BF41F0004130BD14F580045F
:100500003CBF01F5801130BD01F0004545F0FE41D2
:1005100041F470014FF0000030BD7FEA645C1ABF07
:10052000194610467FEA655C1CBF0B46024650EA3E
:10053000013406BF52EA033591EA030F41F400216A
:1005400030BD00BF90F0000F04BF0021704730B5F0
:100550004FF4806404F132044FF000054FF00001C5
:1005600050E700BF90F0000F04BF0021704730B586
:100570004FF4806404F1320410F0004548BF40425B
:100580004FF000013EE700BF42004FEAE2014FEAB0
:1005900031014FEA02701FBF12F07F4393F07F4F8B
:1005A00081F06051704732F07F4208BF704793F08E
:1005B0007F4F04BF41F40021704730B54FF46074A1
:1005C00001F0004521F000411CE700BF50EA0102A4
:1005D00008BF704730B54FF000050AE050EA01024D
:1005E00008BF704730B511F0004502D5404261EBBD
:1005F00041014FF4806404F132045FEA915C3FF4FE
:10060000D8AE4FF003025FEADC0C18BF03325FEA9A
:10061000DC0C18BF033202EBDC02C2F1200300FA4B
:1006200003FC20FA02F001FA03FE40EA0E0021FA70
:1006300002F11444BDE600BF70B54FF0FF0C4CF45E
:10064000E06C1CEA11541DBF1CEA135594EA0C0F10
:1006500095EA0C0F00F0DEF82C4481EA030621EA4B
:100660004C5123EA4C5350EA013518BF52EA033586
:1006700041F4801143F4801338D0A0FB02CE4FF038
:100680000005E1FB02E506F00042E0FB03E54FF068
:100690000006E1FB03569CF0000F18BF4EF0010E60
:1006A000A4F1FF04B6F5007F64F5407404D25FEA5C
:1006B0004E0E6D4146EB060642EAC62141EA55510F
:1006C0004FEAC52040EA5E504FEACE2EB4F1FD0C51
:1006D00088BFBCF5E06F1ED8BEF1004F08BF5FEACF
:1006E000500E50F1000041EB045170BD06F0004681
:1006F00046EA010140EA020081EA0301B4EB5C042E
:10070000C2BFD4EB0C0541EA045170BD41F4801125
:100710004FF0000E013C00F3AB8014F1360FDEBF4A
:10072000002001F0004170BDC4F10004203C35DA26
:100730000C341BDC04F11404C4F1200500FA05F3A9
:1007400020FA04F001FA05F240EA020001F000424A
:1007500021F0004110EBD37021FA04F642EB0601C0
:100760005EEA430E08BF20EAD37070BDC4F10C04EA
:10077000C4F1200500FA04F320FA05F001FA04F2AE
:1007800040EA020001F0004110EBD37041F100019A
:100790005EEA430E08BF20EAD37070BDC4F12005A5
:1007A00000FA05F24EEA020E20FA04F301FA05F20D
:1007B00043EA020321FA04F001F0004121FA04F2B5
:1007C00020EA020000EBD3705EEA430E08BF20EA85
:1007D000D37070BD94F0000F0FD101F000464000BF
:1007E00041EB010111F4801F08BF013CF7D041EA41
:1007F000060195F0000F18BF704703F00046520045
:1008000043EB030313F4801F08BF013DF7D043EA15
:100810000603704794EA0C0F0CEA135518BF95EACB
:100820000C0F0CD050EA410618BF52EA4306D1D152
:1008300081EA030101F000414FF0000070BD50EA71
:10084000410606BF1046194652EA430619D094EAFB
:100850000C0F02D150EA013613D195EA0C0F05D1E5
:1008600052EA03361CBF104619460AD181EA030139
:1008700001F0004141F0FE4141F470014FF00000F1
:1008800070BD41F0FE4141F4780170BD70B54FF08C
:10089000FF0C4CF4E06C1CEA11541DBF1CEA13550C
:1008A00094EA0C0F95EA0C0F00F0A7F8A4EB0504EE
:1008B00081EA030E52EA03354FEA013100F08880E5
:1008C0004FEA03334FF0805545EA131343EA1263AE
:1008D0004FEA022245EA111545EA10654FEA002663
:1008E0000EF000419D4208BF964244F1FD0404F51C
:1008F000407402D25B084FEA3202B61A65EB030578
:100900005B084FEA32024FF480104FF4002CB6EB34
:10091000020E75EB030E22BFB61A754640EA0C00B4
:100920005B084FEA3202B6EB020E75EB030E22BFF4
:10093000B61A754640EA5C005B084FEA3202B6EB35
:10094000020E75EB030E22BFB61A754640EA9C00F4
:100950005B084FEA3202B6EB020E75EB030E22BFC4
:10096000B61A754640EADC0055EA060E18D04FEA82
:10097000051545EA16754FEA06164FEAC30343EA22
:1009800052734FEAC2025FEA1C1CC0D111F4801FEF
:100990000BD141EA00014FF000004FF0004CB6E7E8
:1009A00011F4801F04BF01430020B4F1FD0C88BF87
:1009B000BCF5E06F3FF6AFAEB5EB030C04BFB6EB92
:1009C000020C5FEA500C50F1000041EB045170BD85
:1009D0000EF0004E4EEA113114EB5C04C2BFD4EBB2
:1009E0000C0541EA045170BD41F480114FF0000E36
:1009F000013C90E645EA060E8DE60CEA135594EAB2
:100A00000C0F08BF95EA0C0F3FF43BAF94EA0C0FB4
:100A10000AD150EA01347FF434AF95EA0C0F7FF429
:100A200025AF104619462CE795EA0C0F06D152EA7D
:100A300003353FF4FDAE1046194622E750EA410661
:100A400018BF52EA43067FF4C5AE50EA41047FF472
:100A50000DAF52EA43057FF4EBAE12E74FF0FF3CD7
:100A600006E000BF4FF0010C02E000BF4FF0010CA8
:100A70004DF804CD4FEA410C7FEA6C5C4FEA430C21
:100A800018BF7FEA6C5C1BD001B050EA410C0CBF70
:100A900052EA430C91EA030F02BF90EA020F0020D2
:100AA000704710F1000F91EA030F58BF994208BF39
:100AB00090422CBFD8176FEAE37040F001007047F6
:100AC0004FEA410C7FEA6C5C02D150EA013C07D14D
:100AD0004FEA430C7FEA6C5CD6D152EA033CD3D098
:100AE0005DF8040B704700BF8446104662468C4692
:100AF0001946634600E000BF01B5FFF7B7FF0028C5
:100B000048BF10F1000F01BD4DF808EDFFF7F4FFED
:100B10000CBF012000205DF808FB00BF4DF808ED78
:100B2000FFF7EAFF34BF012000205DF808FB00BF9B
:100B30004DF808EDFFF7E0FF94BF012000205DF8BD
:100B400008FB00BF4DF808EDFFF7CEFF94BF012072
:100B500000205DF808FB00BF4DF808EDFFF7C4FF6B
:100B600034BF012000205DF808FB00BF4FEA410CB4
:100B70007FEA6C5C02D150EA013C0AD14FEA430C97
:100B80007FEA6C5C02D152EA033C02D14FF00000D4
:100B900070474FF0010070474FEA410212F5001212
:100BA00015D211D56FF47873B3EB625212D94FEAB4
:100BB000C12343F0004343EA505311F0004F23FA9E
:100BC00002F018BF404270474FF00000704750EAF3
:100BD000013005D111F0004008BF6FF000407047B0
:100BE0004FF00000704700BF53B94AB9002908BF51
:100BF00000281CBF4FF0FF314FF0FF3000F074B9F8
:100C0000ADF1080C6DE904CE00F006F8DDF804E063
:100C1000DDE9022304B070472DE9F047089D044642
:100C20008E46002B4DD18A42944669D9B2FA82F29F
:100C300052B101FA02F3C2F1200120FA01F10CFADB
:100C400002FC41EA030E94404FEA1C48210CBEFB13
:100C5000F8F61FFA8CF708FB16E341EA034306FB9C
:100C600007F199420AD91CEB030306F1FF3080F02B
:100C70001F81994240F21C81023E63445B1AA4B278
:100C8000B3FBF8F008FB103344EA034400FB07F71A
:100C9000A7420AD91CEB040400F1FF3380F00A815B
:100CA000A74240F207816444023840EA0640E41B50
:100CB00000261DB1D4400023C5E900433146BDE8FC
:100CC000F0878B4209D9002D00F0EF800026C5E99E
:100CD000000130463146BDE8F087B3FA83F6002EB6
:100CE0004AD18B4202D3824200F2F980841A61EB2E
:100CF000030301209E46002DE0D0C5E9004EDDE74C
:100D000002B9FFDEB2FA82F2002A40F09280A1EB33
:100D10000C014FEA1C471FFA8CFE0126200CB1FB88
:100D2000F7F307FB131140EA01410EFB03F0884281
:100D300008D91CEB010103F1FF3802D2884200F20E
:100D4000CB804346091AA4B2B1FBF7F007FB1011A0
:100D500044EA01440EFB00FEA64508D91CEB04043E
:100D600000F1FF3102D2A64500F2BB800846A4EB99
:100D70000E0440EA03409CE7C6F12007B34022FA84
:100D800007FC4CEA030C20FA07F401FA06F31C43B3
:100D9000F9404FEA1C4900FA06F3B1FBF9F8200CC0
:100DA0001FFA8CFE09FB181140EA014108FB0EF006
:100DB000884202FA06F20BD91CEB010108F1FF3A56
:100DC00080F08880884240F28580A8F10208614462
:100DD000091AA4B2B1FBF9F009FB101144EA014170
:100DE00000FB0EFE8E4508D91CEB010100F1FF341B
:100DF0006CD28E456AD90238614440EA0840A0FBB3
:100E00000294A1EB0E01A142C846A64656D353D088
:100E10005DB1B3EB080261EB0E0101FA07F722FAAC
:100E200006F3F1401F43C5E9007100263146BDE8D5
:100E3000F087C2F12003D8400CFA02FC21FA03F338
:100E4000914001434FEA1C471FFA8CFEB3FBF7F0B9
:100E500007FB10360B0C43EA064300FB0EF69E42DE
:100E600004FA02F408D91CEB030300F1FF382FD277
:100E70009E422DD9023863449B1B89B2B3FBF7F61F
:100E800007FB163341EA034106FB0EF38B4208D9F8
:100E90001CEB010106F1FF3816D28B4214D9023E39
:100EA0006144C91A46EA004638E72E46284605E757
:100EB0000646E3E61846F8E64B45A9D2B9EB020828
:100EC00064EB0C0E0138A3E74646EAE7204694E7B8
:100ED0004046D1E7D0467BE7023B614432E73046EB
:100EE00009E76444023842E7704700BF80B500AFAD
:100EF00002480AF0FBFB00BF80BD00BF70D60008AF
:100F000080B500AF044A0021044806F085FE034680
:100F1000034A136000BF80BD74D90008250F000884
:100F2000AC02002080B582B000AF78600121194882
:100F300001F088FB502006F015FF0821154801F04C
:100F400081FB502006F00EFF0821134801F07AFBC8
:100F5000502006F007FF20210F4801F073FB5020BE
:100F600006F000FF4FF480610B4801F06BFB50204E
:100F700006F0F8FE4FF40051074801F063FBFFF75D
:100F8000B5FF06480AF038FC4FF47A7006F0EAFE26
:100F9000CCE700BF000802400014024084D60008DD
:100FA00080B58CB000AF07F11C0300221A605A60B4
:100FB0009A60DA601A616B4B1B6B6A4A43F0040358
:100FC0001363684B1B6B03F00403BB61BB69654B88
:100FD0001B6B644A43F020031363624B1B6B03F0EB
:100FE00020037B617B695F4B1B6B5E4A43F0800390
:100FF00013635C4B1B6B03F080033B613B69594BF4
:101000001B6B584A43F001031363564B1B6B03F0F1
:101010000103FB60FB68534B1B6B524A43F0020316
:101020001363504B1B6B03F00203BB60BB684D4B5B
:101030001B6B4C4A43F0080313634A4B1B6B03F0D2
:1010400008037B607B68474B1B6B464A43F04003B9
:101050001363444B1B6B03F040033B603B6800226F
:1010600042F22841404801F0C1FA002209213F48DC
:1010700001F0BCFA002244F281013D4801F0B6FAC9
:10108000002240213B4801F0B1FA4FF40053FB61CC
:101090004FF488133B6200237B6207F11C0319465F
:1010A000324800F033FF42F22843FB6101233B62E8
:1010B00000237B620023BB6207F11C0319462A4808
:1010C00000F024FF0923FB6101233B6200237B62C4
:1010D0000023BB6207F11C031946244800F016FFE9
:1010E0000823FB614FF488133B6200237B6207F106
:1010F0001C031946204800F009FF44F28103FB61FC
:1011000001233B6200237B620023BB6207F11C03C7
:101110001946174800F0FAFE4023FB6101233B62A9
:1011200000237B620023BB6207F11C0319461148B0
:1011300000F0ECFE8023FB6100233B6200237B6216
:1011400007F11C0319460B4800F0E0FE00220521C0
:10115000282000F011FD282000F03AFD00BF3037B4
:10116000BD4680BD00380240001402400008024025
:1011700000040240001802400000024080B582B026
:1011800000AF0346FB807F21034800F0BDF800BF9D
:101190000837BD4680BD00BF9CD6000880B500AFB3
:1011A00002480AF0A3FA00BF80BD00BFD4D60008F1
:1011B00080B500AF02480AF099FA00BF80BD00BFB9
:1011C000DCD6000880B500AF02480AF08FFA00BFF5
:1011D00080BD00BFE4D6000880B500AF00F0D0FBB2
:1011E00000F00CF8FFF7DCFE00F058FA06F0AAFC5D
:1011F000FFF786FE06F0DAFCFEE7000080B594B04B
:1012000000AF07F1200330220021184609F01CFD31
:1012100007F10C0300221A605A609A60DA601A61C2
:1012200002F0A6FC2A4B1B6C294A43F0805313643E
:10123000274B1B6C03F08053BB60BB68254B1B68BE
:10124000244A43F440431360224B1B6803F4404399
:101250007B607B6801233B624FF4A0237B62022307
:10126000BB634FF48003FB6304233B64D8237B649C
:101270000223BB640923FB6407F12003184602F034
:10128000D7FC0346002B01D000F038F802F080FCB8
:101290000346002B01D000F031F80F23FB6002233E
:1012A0003B6100237B614FF4A053BB614FF480533B
:1012B000FB6107F10C030721184603F013F80346FE
:1012C000002B01D000F01AF800BF5037BD4680BD9A
:1012D000003802400070004080B582B000AF7860F6
:1012E0007B681B68044A934201D100F057FB00BFA2
:1012F0000837BD4680BD00BF0010004080B400AF7D
:1013000072B600BFFEE7000080B582B000AF786023
:101310003960FFF743FF08480AF0E8F9FFF748FF94
:101320003A68796805480AF0E1F9FFF74BFF00BF1A
:101330000837BD4680BD00BFECD60008FCD60008CB
:1013400080B582B000AF114B1B6C104A43F0805344
:1013500013640E4B1B6C03F080537B607B680B4B5C
:101360005B6C0A4A43F480435364084B5B6C03F4A0
:1013700080433B603B6800220F216FF0010000F0CA
:10138000FBFB00BF0837BD4680BD00BF00380240F0
:1013900080B58EB000AF78600023FB620023BB6293
:1013A000334B1B6C324A43F010031364304B1B6CFD
:1013B00003F01003FB60FB6807F1100207F1140350
:1013C0001146184603F070FA3B6AFB62FB6A002B79
:1013D00003D103F041FA786304E003F03DFA0346D9
:1013E0005B007B637B6B234AA2FB03239B0C013BCB
:1013F000BB62214B214A1A601F4B40F2E732DA6090
:101400001D4ABB6A53601C4B00221A611A4B002212
:101410009A60194B00229A61174804F05BFA034660
:1014200087F8333097F83330002B1BD1124804F083
:101430007BFB034687F8333097F83330002B11D10C
:10144000362000F0C5FB7B680F2B08D80022796896
:10145000362000F091FB0A4A7B68136002E001230A
:1014600087F8333097F8333018463837BD4680BD9B
:101470000038024083DE1B43B00200200010004011
:101480000400002080B400AFFEE780B400AFFEE7A8
:1014900080B400AFFEE780B400AFFEE780B400AFD9
:1014A000FEE780B400AF00BFBD465DF8047B704727
:1014B00080B500AF024804F04FFF00BF80BD00BF01
:1014C0000003002080B500AF4FF4005001F0DCF8BD
:1014D00000BF80BD80B500AF024804F0F3FB00BF41
:1014E00080BD00BFB002002080B500AF024800F010
:1014F00019FC00BF80BD00BFFC01002080B500AF1B
:10150000024801F0D9F800BF80BD00BF8803002069
:1015100080B400AF01231846BD465DF8047B7047D8
:1015200080B582B000AF7860396009F053FA0346A5
:1015300016221A604FF0FF3318460837BD4680BDAB
:1015400080B582B000AF78604FF0FF317868FFF768
:10155000E7FFFEE780B586B000AFF860B9607A605B
:1015600000237B610AE0AFF300800146BB685A1C90
:10157000BA60CAB21A707B6901337B617A697B6891
:101580009A42F0DB7B6818461837BD4680BD80B5AF
:1015900086B000AFF860B9607A6000237B6109E033
:1015A000BB685A1CBA601B78184606F0B1FA7B6912
:1015B00001337B617A697B689A42F1DB7B6818466C
:1015C0001837BD4680BD80B483B000AF78604FF05F
:1015D000FF3318460C37BD465DF8047B704780B476
:1015E00083B000AF786039603B684FF400525A60B6
:1015F000002318460C37BD465DF8047B704780B465
:1016000083B000AF7860012318460C37BD465DF803
:10161000047B704780B485B000AFF860B9607A6031
:10162000002318461437BD465DF8047B7047000060
:1016300080B586B000AF7860144A154BD31A7B6131
:101640007B693B61134B1B68002B02D1114B124A83
:101650001A60104B1A687B6813443A699A4207D2A1
:1016600009F0B8F903460C221A604FF0FF3309E085
:10167000084B1B68FB60074B1A687B681344054ADC
:101680001360FB6818461837BD4680BD0000052072
:1016900000080000FC020020A850002080B500AF28
:1016A000144B154A1A60134B4FF4E1325A60114B38
:1016B00000229A600F4B0022DA600E4B00221A6162
:1016C0000C4B0C225A610B4B00229A61094B0022F1
:1016D000DA61084B00221A62064B00225A62054862
:1016E00004F0F6FC0346002B01D0FFF707FE00BF15
:1016F00080BD00BF000300200048004080B5AAB0B4
:1017000000AF786007F1940300221A605A609A6073
:10171000DA601A6107F1100384220021184609F0EB
:1017200093FA7B681B68264A934244D14FF4807336
:101730003B610023FB6507F11003184603F0E6F850
:101740000346002B01D0FFF7D9FD1E4B1B6C1D4A31
:1017500043F4802313641B4B1B6C03F48023FB6056
:10176000FB68184B1B6B174A43F008031363154BB8
:101770001B6B03F00803BB60BB684FF44073C7F8F2
:1017800094300223C7F898300123C7F89C30032314
:10179000C7F8A0300723C7F8A43007F1940319460F
:1017A000094800F0B3FB00220521272000F0E4F9EE
:1017B000272000F00DFA00BFA837BD4680BD00BF4E
:1017C0000048004000380240000C0240DFF834D0EE
:1017D0000D480E490E4A002302E0D458C450043389
:1017E000C4188C42F9D30B4A0B4C002301E0136060
:1017F0000432A242FBD300F0B1F809F0E7F9FFF799
:10180000EBFC70470000052000000020E0010020F4
:101810009CDD0008E0010020A8500020FEE780B514
:1018200082B000AF78607B68D3F80033184608F0C8
:10183000F3FF00BF0837BD4680BD80B582B000AF62
:1018400078607B68D3F80033184609F037F800BF9A
:101850000837BD4680BD80B582B000AF78607B6838
:10186000D3F80033184609F04CF800BF0837BD46DE
:1018700080BD80B582B000AF78600B46FB70134628
:10188000BB707B68D3F80033184609F06CF800BFD2
:101890000837BD4680BD80B582B000AF78607B68F8
:1018A000D3F80033184608F0E1FF00BF0837BD4603
:1018B00080BD80B582B000AF78607B68D3F800331C
:1018C000184608F0EDFF00BF0837BD4680BD80B563
:1018D00084B000AF78600023FB730023BB737B6888
:1018E000D3F8A035184600F0F2FF0346FB73FB7BEC
:1018F000184600F007F80346BB73BB7B1846103749
:10190000BD4680BD80B485B000AF0346FB710023A7
:10191000FB73FB79032B17D801A252F823F000BF09
:1019200031190008371900083D190008431900084B
:101930000023FB730BE00223FB7308E00123FB731E
:1019400005E00223FB7302E00223FB7300BFFB7B75
:1019500018461437BD465DF8047B704780B400AF6D
:10196000064BD3F88830054A43F47003C2F8883038
:1019700000BFBD465DF8047B704700BF00ED00E08E
:1019800080B500AF032000F0D7F80F20FFF700FD6F
:10199000FFF7D6FC0023184680BD000080B400AFDE
:1019A000064B1B781A46064B1B681344044A136007
:1019B00000BFBD465DF8047B704700BF08000020F3
:1019C0008C06002080B400AF034B1B681846BD4650
:1019D0005DF8047B704700BF8C06002080B485B0A2
:1019E00000AF78607B6803F00703FB600B4BDB689C
:1019F000BB60BA684FF6FF031340BB60FB681A0276
:101A0000BB681A43064B1343BB60044ABB68D360F0
:101A100000BF1437BD465DF8047B704700ED00E061
:101A20000000FA0580B400AF044BDB681B0A03F02A
:101A300007031846BD465DF8047B704700ED00E0E3
:101A400080B483B000AF0346FB7197F90730002BD9
:101A50000BDBFB7903F01F02074997F907305B099D
:101A6000012000FA02F241F8232000BF0C37BD46E6
:101A70005DF8047B704700BF00E100E080B483B0F4
:101A800000AF03463960FB7197F90730002B0ADB82
:101A90003B68DAB20C4997F907301201D2B20B4415
:101AA00083F800230AE03B68DAB20849FB7903F0C7
:101AB0000F03043B1201D2B20B441A7600BF0C375D
:101AC000BD465DF8047B704700E100E000ED00E0FA
:101AD00080B489B000AFF860B9607A60FB6803F049
:101AE0000703FB61FB69C3F10703042B28BF042331
:101AF000BB61FB690433062B02D9FB69033B00E0A1
:101B000000237B614FF0FF32BB6902FA03F3DA4333
:101B1000BB681A407B699A404FF0FF317B6901FA3C
:101B200003F3D9437B680B40134318462437BD4663
:101B30005DF8047B7047000080B582B000AF78602C
:101B40007B68072B0FD07B68062B0CD07B68052B9E
:101B500009D07B68042B06D07B68032B03D091212E
:101B60000448FFF7D1FB7868FFF738FF00BF08375C
:101B7000BD4680BD2CD7000880B586B000AF0346B7
:101B8000B9607A60FB7300237B617B680F2B03D9FC
:101B9000A9210E48FFF7B8FBBB680F2B03D9AA2178
:101BA0000A48FFF7B1FBFFF73DFF78617A68B96833
:101BB0007869FFF78DFF024697F90F3011461846F6
:101BC000FFF75CFF00BF1837BD4680BD2CD700086B
:101BD00080B582B000AF0346FB7197F90730002B48
:101BE00003DABD210548FFF78FFB97F90730184648
:101BF000FFF726FF00BF0837BD4680BD2CD7000881
:101C000080B584B000AF78607B689B6DFB60FFF7A8
:101C1000D9FEB8607B6893F83530DBB2022B08D070
:101C20007B6880225A657B68002283F83420012378
:101C300052E07B681B681A687B681B6822F01602FA
:101C40001A607B681B685A697B681B6822F08002F7
:101C50005A617B681B6C002B03D17B689B6C002B4B
:101C600007D07B681B681A687B681B6822F0080233
:101C70001A607B681B681A687B681B6822F0010287
:101C80001A6013E0FFF79EFE0246BB68D31A052BCD
:101C90000CD97B6820225A657B68032283F83520A3
:101CA0007B68002283F83420032315E07B681B68DF
:101CB0001B6803F00103002BE4D17B68DB6D3F223E
:101CC0009A40FB689A607B68012283F835207B6824
:101CD000002283F83420002318461037BD4680BD0B
:101CE00080B483B000AF78607B6893F83530DBB2A6
:101CF000022B04D07B6880225A6501230CE07B68AC
:101D0000052283F835207B681B681A687B681B688E
:101D100022F001021A60002318460C37BD465DF818
:101D2000047B704780B582B000AF78607B681B6829
:101D300003F580535B6903F04003402B12D17B68AD
:101D40001B6803F58053DB6903F04003402B09D186
:101D50007B681B6803F580531A46504B53617868C3
:101D600000F0ACF87B681B6803F580535B6903F0F7
:101D70000103012B13D17B681B6803F58053DB69DA
:101D800003F00103012B0AD17B681B6803F5805324
:101D90001A464FF001135361786800F085F87B68AC
:101DA0001B6803F580535B6903F40043B3F5004FF0
:101DB0004CD17B681B6803F58053DB6903F4004357
:101DC000B3F5004F42D17B68D3F8883043F0080266
:101DD0007B68C3F888207B681B6803F580535B69C8
:101DE00003F40053B3F5005F1AD17B681B6803F559
:101DF00080535A692A4B13407A68C2F88C307B684A
:101E00001B6803F58053DB697A68126823F4C033DA
:101E100002F58052D3617B68E022C3F8842012E08F
:101E20007B681B6803F580535A6948F2806313404E
:101E30007A68C2F88C307B681B6803F580531A46B9
:101E400048F280635361786800F042F87B681B6851
:101E50009B6B03F00803082B0ED17B681B68DB6AC1
:101E600003F060027B68C3F89420786800F03AF8C9
:101E70007B680022C3F894200A4B5B6903F40023BB
:101E8000002B06D0074B4FF400225A61786800F00F
:101E900033F800BF0837BD4680BD00BF40000100D9
:101EA00000207E00003C014080B483B000AF786029
:101EB00000BF0C37BD465DF8047B704780B483B02B
:101EC00000AF786000BF0C37BD465DF8047B7047FB
:101ED00080B483B000AF786000BF0C37BD465DF8BA
:101EE000047B704780B483B000AF786000BF0C37CC
:101EF000BD465DF8047B704780B483B000AF786066
:101F000000BF0C37BD465DF8047B704780B588B0D4
:101F100000AF786039600023FB6100237B61002300
:101F20003B610023BB617B683A4A93422BD07B68BC
:101F3000394A934227D07B68384A934223D07B6842
:101F4000374A93421FD07B68364A93421BD07B6846
:101F5000354A934217D07B68344A934213D07B684A
:101F6000334A93420FD07B68324A93420BD07B684E
:101F7000314A934207D07B68304A934203D0AA216A
:101F80002F48FFF7C1F93B681B689BB2002B03D1B8
:101F9000AB212B48FFF7B8F93B685B68002B35D0C5
:101FA0003B685B68012B31D03B685B68112B2DD0FF
:101FB0003B685B68022B29D03B685B68122B25D0FD
:101FC0003B685B68B3F5881F20D03B685B68B3F55E
:101FD000041F1BD03B685B68B3F5441F16D03B68F9
:101FE0005B68B3F5901F11D03B685B68B3F5081FC1
:101FF0000CD03B685B68B3F5481F07D03B685B6853
:10200000032B03D0AC210E48FFF77EF90023FB61C0
:10201000C7E200BF00000240000402400008024086
:10202000000C024000100240001402400018024060
:10203000001C024000200240002402400028024010
:102040008CD700080122FB6902FA03F37B613B682D
:102050001B687A6913403B613A697B699A4240F098
:102060009D823B685B6803F00303012B05D03B684E
:102070005B6803F00303022B44D13B68DB68002B51
:102080000FD03B68DB68012B0BD03B68DB68022B71
:1020900007D03B68DB68032B03D0BD213148FFF735
:1020A00033F97B689B68BB61FB695B00032202FA22
:1020B00003F3DB43BA691340BB613B68DA68FB6931
:1020C0005B0002FA03F3BA691343BB617B68BA6928
:1020D0009A607B685B68BB610122FB6902FA03F3CB
:1020E000DB43BA691340BB613B685B681B0903F0C3
:1020F0000102FB6902FA03F3BA691343BB617B680F
:10210000BA695A603B685B6803F00303032B2BD06A
:102110003B689B68002B0BD03B689B68012B07D06A
:102120003B689B68022B03D0CE210E48FFF7ECF8EA
:102130007B68DB68BB61FB695B00032202FA03F387
:10214000DB43BA691340BB613B689A68FB695B007B
:1021500002FA03F3BA691343BB617B68BA69DA60B8
:1021600002E000BF8CD700083B685B6803F0030304
:10217000022B40F034813B681B69002B00F00B817F
:102180003B681B69012B00F006813B681B69002B33
:1021900000F001813B681B69002B00F0FC803B686C
:1021A0001B69002B00F0F7803B681B69012B00F0D6
:1021B000F2803B681B69022B00F0ED803B681B69D5
:1021C000022B00F0E8803B681B69022B00F0E380E3
:1021D0003B681B69032B00F0DE803B681B69032B07
:1021E00000F0D9803B681B69032B00F0D4803B686A
:1021F0001B69032B00F0CF803B681B69032B00F0A9
:10220000CA803B681B69032B00F0C5803B681B69D3
:10221000042B00F0C0803B681B69042B00F0BB80DE
:102220003B681B69042B00F0B6803B681B69042BDC
:1022300000F0B1803B681B69042B00F0AC803B6868
:102240001B69052B00F0A7803B681B69052B00F07C
:10225000A2803B681B69052B00F09D803B681B69D1
:10226000052B00F098803B681B69052B00F09380DC
:102270003B681B69052B00F08E803B681B69062BB1
:1022800000F089803B681B69062B00F084803B6866
:102290001B69072B7FD03B681B69072B7BD03B68F2
:1022A0001B69072B77D03B681B69072B73D03B68F2
:1022B0001B69072B6FD03B681B69072B6BD03B68F2
:1022C0001B69072B67D03B681B69082B63D03B68F1
:1022D0001B69082B5FD03B681B69082B5BD03B68F0
:1022E0001B69082B57D03B681B69082B53D03B68F0
:1022F0001B69082B4FD03B681B69082B4BD03B68F0
:102300001B69092B47D03B681B69092B43D03B68ED
:102310001B69092B3FD03B681B69092B3BD03B68ED
:102320001B69092B37D03B681B69092B33D03B68ED
:102330001B69092B2FD03B681B690A2B2BD03B68EC
:102340001B690A2B27D03B681B690A2B23D03B68EB
:102350001B690A2B1FD03B681B690B2B1BD03B68EA
:102360001B690C2B17D03B681B690C2B13D03B68E7
:102370001B690C2B0FD03B681B690F2B0BD03B68E4
:102380001B690D2B07D03B681B690E2B03D0DB218B
:102390008848FEF7B9FFFB69DA087B68083253F812
:1023A0002230BB61FB6903F007039B000F2202FA96
:1023B00003F3DB43BA691340BB613B681A69FB69ED
:1023C00003F007039B0002FA03F3BA691343BB61EE
:1023D000FB69DA087B680832B96943F822107B6828
:1023E0001B68BB61FB695B00032202FA03F3DB435A
:1023F000BA691340BB613B685B6803F00302FB6989
:102400005B0002FA03F3BA691343BB617B68BA69E4
:102410001A603B685B6803F44033002B00F0BE8019
:10242000654B5B6C644A43F480435364624B5B6C62
:1024300003F48043FB60FB68604AFB699B0802333E
:1024400052F82330BB61FB6903F003039B000F22AA
:1024500002FA03F3DB43BA691340BB617B68584A55
:10246000934237D07B68574A934231D07B68564AB3
:1024700093422BD07B68554A934225D07B68544ABF
:1024800093421FD07B68534A934219D07B68524ACB
:10249000934213D07B68514A93420DD07B68504AD7
:1024A000934207D07B684F4A934201D1092312E03F
:1024B0000A2310E008230EE007230CE006230AE0BD
:1024C000052308E0042306E0032304E0022302E0DE
:1024D000012300E00023FA6902F003029200934016
:1024E000BA691343BB613549FB699B080233BA697A
:1024F00041F823203C4B9B68BB613B69DB43BA69D5
:102500001340BB613B685B6803F48013002B03D06E
:10251000BA693B691343BB61334ABB699360324B71
:10252000DB68BB613B69DB43BA691340BB613B6855
:102530005B6803F40013002B03D0BA693B691343B3
:10254000BB61294ABB69D360274B5B68BB613B69B0
:10255000DB43BA691340BB613B685B6803F400333B
:10256000002B03D0BA693B691343BB611E4ABB69A8
:1025700053601D4B1B68BB613B69DB43BA69134069
:10258000BB613B685B6803F48033002B03D0BA69FE
:102590003B691343BB61144ABB691360FB69013398
:1025A000FB61FB690F2B7FF64DAD00BF00BF2037ED
:1025B000BD4680BD8CD7000800380240003801407D
:1025C000000002400004024000080240000C0240EB
:1025D000001002400014024000180240001C02409B
:1025E0000020024000240240003C014080B582B03F
:1025F00000AF78600B467B8013467B707B88002B96
:1026000004D140F297110E48FEF77EFE7B78002B36
:1026100007D07B78012B04D04FF4CC710848FEF72B
:1026200073FE7B78002B03D07A887B689A6103E085
:102630007B881A047B689A6100BF0837BD4680BD5D
:102640008CD7000880B584B000AF78600B467B80E3
:102650007B88002B04D140F2AF110A48FEF754FEEC
:102660007B685B69FB607A88FB6813401A04FB682F
:10267000D9437B880B401A437B689A6100BF1037AF
:10268000BD4680BD8CD7000880B582B000AF034640
:10269000FB80084B5A69FB881340002B06D0054A83
:1026A000FB885361FB881846FEF768FD00BF0837BA
:1026B000BD4680BD003C014080B586B000AF78606B
:1026C0007B681B683B613B69FB607B681B68184645
:1026D00005F036F80346012B40F0F6807B681B6856
:1026E000184604F0F9FF0346002B00F0EC807B68ED
:1026F0001B68184604F0F0FF034603F40013B3F51B
:10270000001F04D17B681B684FF400125A617B687C
:102710001B68184604F0E0FF034603F48013B3F58A
:10272000801F04D17B681B684FF480125A617B685C
:102730001B68184604F0D0FF034603F08063B3F132
:10274000806F04D17B681B684FF080625A617B68A0
:102750001B68184604F0C0FF034603F00203022B77
:1027600003D17B681B6802225A617B681B6818468C
:1027700004F0B2FF034603F00053B3F1005F1CD135
:102780007B681B684FF000525A61FB6803F5886351
:102790001B6803F00103002B0FD11021386904F0EE
:1027A000DFFE386904F010FF7B681B6801211846C2
:1027B00004F0D4FF7868FFF74EF87B681B68184672
:1027C00004F08AFF034603F08073B3F1807F02D1E7
:1027D000786801F059F97B681B68184604F07CFFA3
:1027E000034603F00803082B06D17868FFF717F8B3
:1027F0007B681B6808225A617B681B68184604F0D6
:102800006BFF034603F01003102B01D1012300E0FE
:102810000023002B12D07B681B689A697B681B68B9
:1028200022F010029A61786801F05CF87B681B68FE
:102830009A697B681B6842F010029A617B681B688A
:10284000184604F049FF034603F00073B3F1007F1C
:102850003AD17B681B68184604F0BAFFB8600023C1
:102860007B6125E07B6903F00F03BA6822FA03F36A
:1028700003F00103002B18D07B695A01FB68134455
:1028800003F5A0631B6803F40043B3F5004F06D1C2
:102890007B69DBB21946786800F036F805E07B69A1
:1028A000DBB21946786800F051FC7B6901337B612B
:1028B0007B689B687A699A42D4D37B681B684FF027
:1028C00000725A6100E000BF1837BD4680BD80B578
:1028D00082B000AF78607B6893F8F832012B01D1A9
:1028E00002230DE07B68012283F8F8227B681B68D5
:1028F000184605F07AF87B68002283F8F822002356
:1029000018460837BD4680BD80B586B000AF7860F8
:102910000B46FB707B681B687B617B693B61FB78C6
:10292000FB607B681B68FA68D2B21146184604F057
:10293000E6FE034603F00403042B1AD1FB685A0198
:102940003B69134403F5A0631A46042393607A6835
:10295000FB682C2101FB03F31344613307221A7037
:102960007B681B68FA68D2B21146184604F041FF32
:10297000A2E07B681B68FA68D2B21146184604F0E0
:10298000BEFE034603F48073B3F5807F1BD1FB6862
:102990005A013B69134403F5A0631A464FF4807350
:1029A00093607A68FB682C2101FB03F313446133C5
:1029B00008221A707B681B68FA68D2B21146184662
:1029C00004F017FF78E07B681B68FA68D2B2114602
:1029D000184604F094FE034603F00803082B1AD1AE
:1029E000FB685A013B69134403F5A0631A460823A8
:1029F00093607A68FB682C2101FB03F31344613375
:102A000006221A707B681B68FA68D2B21146184613
:102A100004F0EFFE50E07B681B68FA68D2B2114602
:102A2000184604F06CFE034603F48063B3F5806F30
:102A30001BD1FB685A013B69134403F5A0631A4696
:102A40004FF4806393607A68FB682C2101FB03F3E9
:102A50001344613309221A707B681B68FA68D2B28A
:102A60001146184604F0C5FE26E07B681B68FA682C
:102A7000D2B21146184604F042FE034603F080032A
:102A8000802B19D1FB685A013B69134403F5A063FD
:102A90001A46802393607A68FB682C2101FB03F3BC
:102AA0001344613307221A707B681B68FA68D2B23C
:102AB0001146184604F09DFE7B681B68FA68D2B286
:102AC0001146184604F01BFE034603F40073B3F5E9
:102AD000007F12D17B681B68FA68D2B21146184693
:102AE00004F087FEFB685A013B69134403F5A063B9
:102AF0001A464FF40073936025E37B681B68FA68FD
:102B0000D2B21146184604F0FAFD034603F0010361
:102B1000012B40F0E880FB685A013B69134403F540
:102B2000A0631A46202393607B681B69002B19D091
:102B30007A68FB682C2101FB03F3134448331A68BD
:102B4000FB6859013B690B4403F5A0631B69C3F3A0
:102B50001203D21A7968FB682C2000FB03F30B44A4
:102B600050331A607A68FB682C2101FB03F313448D
:102B7000613301221A707A68FB682C2101FB03F390
:102B800013445C3300221A60FB685A013B6913440A
:102B900003F5A0631A46012393607A68FB682C2131
:102BA00001FB03F313443F331B78002B09D07A68F1
:102BB000FB682C2101FB03F313443F331B78022BEA
:102BC00011D17B681B68FA68D2B21146184604F02E
:102BD00010FEFB685A013B69134403F5A0631A46D3
:102BE000102393603AE07A68FB682C2101FB03F321
:102BF00013443F331B78032B09D07A68FB682C21E0
:102C000001FB03F313443F331B78012B26D1FB68F0
:102C10005A013B69134403F5A0631B68FA6851012C
:102C20003A690A4402F5A06243F0005313607A68DF
:102C3000FB682C2101FB03F31344603301221A705B
:102C4000FB68D9B27A68FB682C2000FB03F31344BD
:102C500060331B781A467868FEF70BFE7B681B69A9
:102C6000012B2BD17A68FB682C2101FB03F3134461
:102C700048331B687968FA682C2000FB02F20A448A
:102C800040321288B3FBF2F303F00103002B00F093
:102C90005A827A68FB682C2101FB03F313445433F6
:102CA0001B7883F00103D8B27A68FB682C2101FB02
:102CB00003F31344543302461A7044E27A68FB6803
:102CC0002C2101FB03F3134454331B7883F00103DD
:102CD000D8B27A68FB682C2101FB03F31344543308
:102CE00002461A702FE27B681B68FA68D2B211465E
:102CF000184604F004FD034603F02003202B09D1FD
:102D0000FB685A013B69134403F5A0631A4620236C
:102D1000936018E27B681B68FA68D2B211461846C5
:102D200004F0EDFC034603F00203022B40F06B813C
:102D3000FB685A013B69134403F5A0631A4602235A
:102D400093607A68FB682C2101FB03F31344613321
:102D50001B78012B12D17A68FB682C2101FB03F34D
:102D60001344613302221A707A68FB682C2101FB3C
:102D700003F31344603301221A7035E17A68FB686B
:102D80002C2101FB03F3134461331B78062B12D172
:102D90007A68FB682C2101FB03F3134461330222A0
:102DA0001A707A68FB682C2101FB03F3134460332B
:102DB00005221A7018E17A68FB682C2101FB03F3E5
:102DC000134461331B78072B09D07A68FB682C21E8
:102DD00001FB03F3134461331B78092B59D17A6843
:102DE000FB682C2101FB03F31344613302221A70A8
:102DF0007A68FB682C2101FB03F313445C331B68E6
:102E00005A1C7968FB682C2000FB03F30B445C33ED
:102E10001A607A68FB682C2101FB03F313445C33CE
:102E20001B68022B12D97A68FB682C2101FB03F383
:102E300013445C3300221A607A68FB682C2101FB82
:102E400003F31344603304221A70CDE07A68FB6800
:102E50002C2101FB03F31344603302221A70FB6838
:102E60005A013B69134403F5A0631B68BB60BB6850
:102E700023F08043BB60BB6843F00043BB60FB684A
:102E80005A013B69134403F5A0631A46BB681360FB
:102E9000AAE07A68FB682C2101FB03F31344613339
:102EA0001B78052B09D17A68FB682C2101FB03F301
:102EB0001344613302221A7096E07A68FB682C2171
:102EC00001FB03F3134461331B78032B09D17A68A8
:102ED000FB682C2101FB03F31344613302221A70B7
:102EE00082E07A68FB682C2101FB03F31344613311
:102EF0001B78042B3FD17A68FB682C2101FB03F37C
:102F00001344613302221A707A68FB682C2101FB9A
:102F100003F31344603302221A707A68FB682C2191
:102F200001FB03F313443F331B78002B09D07A686D
:102F3000FB682C2101FB03F313443F331B78022B66
:102F400052D1FB685A013B69134403F5A0631B6827
:102F5000BB60BB6823F08043BB60BB6843F00043A9
:102F6000BB60FB685A013B69134403F5A0631A4632
:102F7000BB68136038E07A68FB682C2101FB03F31F
:102F8000134461331B78082B23D17A68FB682C210A
:102F900001FB03F31344613302221A707A68FB6861
:102FA0002C2101FB03F313445C331B685A1C796822
:102FB000FB682C2000FB03F30B445C331A607A6837
:102FC000FB682C2101FB03F31344603304221A70C5
:102FD0000AE07A68FB682C2101FB03F31344613398
:102FE0001B78022B00F0AE80FB68D9B27A68FB68D0
:102FF0002C2000FB03F3134460331B781A467868D7
:10300000FEF737FC9FE07B681B68FA68D2B2114676
:10301000184604F074FB034603F04003402B23D111
:10302000FB685A013B69134403F5A0631A46402329
:1030300093607A68FB682C2101FB03F3134461332E
:1030400005221A707A68FB682C2101FB03F31344F4
:103050005C3300221A607B681B68FA68D2B21146A2
:10306000184604F0C6FB6EE07B681B68FA68D2B2B3
:103070001146184604F043FB034603F01003102BDF
:1030800061D17A68FB682C2101FB03F313443F33C1
:103090001B78032B1AD17A68FB682C2101FB03F300
:1030A00013445C3300221A607A68FB682C2101FB10
:1030B00003F31344613304221A707B681B68FA68B7
:1030C000D2B21146184604F094FB31E07A68FB68EE
:1030D0002C2101FB03F313443F331B78002B09D051
:1030E0007A68FB682C2101FB03F313443F331B7800
:1030F000022B1DD17A68FB682C2101FB03F31344DA
:103100005C3300221A607B681B69002B10D17A683F
:10311000FB682C2101FB03F31344613304221A7072
:103120007B681B68FA68D2B21146184604F061FB4E
:10313000FB685A013B69134403F5A0631A46102348
:10314000936000E000BF1837BD4680BD80B588B0F1
:1031500000AF78600B46FB707B681B68FB61FB6906
:10316000BB61FB787B617B681B687A69D2B21146D0
:10317000184604F0C4FA034603F00403042B1AD1E2
:103180007B695A01BB69134403F5A0631A46042303
:1031900093607A687B692C2101FB03F3134461334C
:1031A00007221A707B681B687A69D2B211461846EA
:1031B00004F01FFB93E37B681B687A69D2B2114667
:1031C000184604F09CFA034603F02003202B37D165
:1031D0007B695A01BB69134403F5A0631A46202397
:1031E00093607A687B692C2101FB03F313443D3320
:1031F0001B78012B40F073837A687B692C2101FBDB
:1032000003F313443D3300221A707A687B692C2142
:1032100001FB03F31344603302221A707A687B695E
:103220002C2101FB03F31344613303221A707B68E2
:103230001B687A69D2B21146184604F0DAFA4EE3F6
:103240007B681B687A69D2B21146184604F057FAB7
:10325000034603F40073B3F5007F12D17B695A0172
:10326000BB69134403F5A0631A464FF400739360DF
:103270007B681B687A69D2B21146184604F0B9FA25
:103280002DE37B681B687A69D2B21146184604F0B8
:1032900036FA034603F00103012B42D17A687B69B9
:1032A0002C2101FB03F313445C3300221A607B687A
:1032B0001B687A69D2B21146184604F020FA034618
:1032C00003F04003402B11D17A687B692C2101FB6C
:1032D00003F313443D3301221A707B695A01BB6921
:1032E000134403F5A0631A46402393607B695A0197
:1032F000BB69134403F5A0631A46012393607A68FF
:103300007B692C2101FB03F31344613301221A7002
:103310007B681B687A69D2B21146184604F069FAD4
:10332000DDE27B681B687A69D2B21146184604F068
:10333000E6F9034603F04003402B2CD17A687B6901
:103340002C2101FB03F31344613305221A707A68C0
:103350007B692C2101FB03F313443D3301221A70D6
:103360007A687B692C2101FB03F313445C33002250
:103370001A607B681B687A69D2B21146184604F05D
:1033800038FA7B695A01BB69134403F5A0631A46F6
:1033900040239360A3E27B681B687A69D2B211462E
:1033A000184604F0ACF9034603F00803082B1AD1C1
:1033B0007B695A01BB69134403F5A0631A460823CD
:1033C00093607A687B692C2101FB03F3134461331A
:1033D00006221A707B681B687A69D2B211461846B9
:1033E00004F007FA7BE27B681B687A69D2B2114667
:1033F000184604F084F9034603F01003102B40D163
:103400007A687B692C2101FB03F313445C330022AF
:103410001A607A687B692C2101FB03F31344613342
:1034200004221A707A687B692C2101FB03F3134490
:103430003D331B78002B12D17A687B692C2101FB6C
:1034400003F313443C331B78002B08D17A687B6963
:103450002C2101FB03F313443D3301221A707B68D6
:103460001B687A69D2B21146184604F0C2F97B692A
:103470005A01BB69134403F5A0631A4610239360F5
:103480002DE27B681B687A69D2B21146184604F0B7
:1034900036F9034603F08003802B64D17B681B69F7
:1034A000002B11D17A687B692C2101FB03F31344B3
:1034B000613307221A707B681B687A69D2B21146A1
:1034C000184604F096F944E07A687B692C2101FBE8
:1034D00003F313445C331B685A1C79687B692C2006
:1034E00000FB03F30B445C331A607A687B692C2180
:1034F00001FB03F313445C331B68022B20D97A6869
:103500007B692C2101FB03F313445C3300221A6016
:103510007A687B692C2101FB03F313446033042296
:103520001A707B69D9B27A687B692C2000FB03F39F
:10353000134460331B781A467868FEF79AF908E05E
:103540007A687B692C2101FB03F313446033022268
:103550001A707B695A01BB69134403F5A0631A46CC
:1035600080239360BBE17B681B687A69D2B2114605
:10357000184604F0C4F8034603F48063B3F5806F83
:103580001BD17A687B692C2101FB03F3134461335F
:1035900009221A707B681B687A69D2B211461846F4
:1035A00004F027F97B695A01BB69134403F5A06352
:1035B0001A464FF48063936091E17B681B687A69D7
:1035C000D2B21146184604F09AF8034603F00203FB
:1035D000022B40F084817B695A01BB69134403F5D7
:1035E000A0631A46022393607A687B692C2101FB51
:1035F00003F3134461331B78012B40F087807A6812
:103600007B692C2101FB03F31344613302221A70FE
:103610007A687B692C2101FB03F313446033012298
:103620001A707A687B692C2101FB03F313443F3342
:103630001B78022B0AD07A687B692C2101FB03F3EB
:1036400013443F331B78032B40F039817B681B699F
:10365000002B13D17A687B692C2101FB03F31344FF
:1036600055331B7883F00103D8B27A687B692C212B
:1036700001FB03F31344553302461A707B681B6940
:10368000012B40F01C817A687B692C2101FB03F33C
:1036900013444C331B68002B00F011817A687B695E
:1036A0002C2101FB03F313444C331B6879687A69BE
:1036B0002C2000FB02F20A44403212881344013BE2
:1036C00079687A692C2000FB02F20A4440321288A1
:1036D000B3FBF2F3FB60FB6803F00103002B00F087
:1036E000EE807A687B692C2101FB03F31344553388
:1036F0001B7883F00103D8B27A687B692C2101FB27
:1037000003F31344553302461A70D8E07A687B6994
:103710002C2101FB03F3134461331B78032B09D1E4
:103720007A687B692C2101FB03F313446133022285
:103730001A70C4E07A687B692C2101FB03F31344FF
:1037400061331B78042B12D17A687B692C2101FB31
:1037500003F31344613302221A707A687B692C21C7
:1037600001FB03F31344603302221A70A7E07A6866
:103770007B692C2101FB03F3134461331B78052B78
:1037800012D17A687B692C2101FB03F31344613366
:1037900002221A707A687B692C2101FB03F313441F
:1037A000603302221A708AE07A687B692C2101FB5F
:1037B00003F3134461331B78062B12D17A687B69BB
:1037C0002C2101FB03F31344613302221A707A683F
:1037D0007B692C2101FB03F31344603305221A702B
:1037E0006DE07A687B692C2101FB03F3134461339C
:1037F0001B78072B09D07A687B692C2101FB03F326
:10380000134461331B78092B68D17A687B692C21BA
:1038100001FB03F31344613302221A707A687B6957
:103820002C2101FB03F313445C331B685A1C796899
:103830007B692C2000FB03F30B445C331A607A682D
:103840007B692C2101FB03F313445C331B68022BBF
:1038500012D97A687B692C2101FB03F313445C3392
:1038600000221A607A687B692C2101FB03F3134460
:10387000603304221A7021E07A687B692C2101FBF5
:1038800003F31344603302221A707B695A01BB6947
:10389000134403F5A0631B683B613B6923F080433D
:1038A0003B613B6943F000433B617B695A01BB6963
:1038B000134403F5A0631A463B69136000BF7B699C
:1038C000D9B27A687B692C2000FB03F31344603380
:1038D0001B781A467868FDF7CCFF00E000BF203760
:1038E000BD4680BD80B58AB000AF78607B681B683C
:1038F0007B627B6A3B627B681B681B6AFB61FB69BE
:1039000003F00F03BB61FB695B0C03F00F037B61EA
:10391000FB691B09C3F30A033B617B69022B04D0DB
:103920007B69052B00F0A980AAE03B69002B00F021
:10393000A6807A68BB692C2101FB03F3134444334E
:103940001B68002B00F09B807A68BB692C2101FB6F
:1039500003F3134450331A683B691A447968BB690E
:103960002C2000FB03F30B444C331B689A427AD89B
:103970007B6818687A68BB692C2101FB03F3134448
:1039800044331B683A6992B2194603F04DFE7A68D7
:10399000BB692C2101FB03F3134444331A683B69D0
:1039A0001A447968BB692C2000FB03F30B444433B1
:1039B0001A607A68BB692C2101FB03F3134450336E
:1039C0001A683B691A447968BB692C2000FB03F331
:1039D0000B4450331A60BB695A013B6A134403F528
:1039E000A0631B69DB0CC3F30903FB607A68BB6946
:1039F0002C2101FB03F3134440331B881A463B6917
:103A000093423CD1FB68002B39D0BB695A013B6A19
:103A1000134403F5A0631B68BB60BB6823F08043BD
:103A2000BB60BB6843F00043BB60BB695A013B6AA3
:103A3000134403F5A0631A46BB6813607A68BB6938
:103A40002C2101FB03F3134454331B7883F001034F
:103A5000D8B27A68BB692C2101FB03F313445433B9
:103A600002461A700BE07A68BB692C2101FB03F354
:103A70001344603304221A7001E000BF00E000BF6D
:103A800000BF2837BD4680BD80B586B000AF7860E6
:103A90007B681B687B617B693B613B6903F58863DD
:103AA0001B68FB603B6903F588631B68BB60BB68F0
:103AB00023F02E03BB60FB6803F00203022B0BD143
:103AC000FB6803F00103012B02D17868FDF7B5FE16
:103AD000BB6843F00203BB60FB6803F00803082BDC
:103AE00032D1BB6843F00803BB60FB6803F00403FA
:103AF000042B26D17B689B69022B13D1FB6803F44E
:103B0000C023B3F5802F06D17B681B6802211846BD
:103B100003F024FE11E07B681B680121184603F0C6
:103B20001DFE0AE07B68DB68012B06D13B6903F5CB
:103B300080631A464EF6602353607868FDF7ABFE4B
:103B400002E07868FDF7B5FEFB6803F02003202B48
:103B500003D1BB6843F02003BB603B6903F5886376
:103B60001A46BB68136000BF1837BD4680BD000011
:103B700080B400AF054B1B68044A43F480731360A4
:103B800000BFBD465DF8047B704700BF0070004079
:103B900080B582B000AF00237B60234B1B6C224AB0
:103BA00043F080531364204B1B6C03F080533B6045
:103BB0003B681E4B1B681D4A43F480331360FDF7BE
:103BC00001FF786009E0FDF7FDFE02467B68D31A2D
:103BD000B3F57A7F01D9032322E0144B5B6803F429
:103BE0008033B3F5803FEED1104B1B680F4A43F48E
:103BF00000331360FDF7E6FE786009E0FDF7E2FEB2
:103C000002467B68D31AB3F57A7F01D9032307E014
:103C1000064B5B6803F40033B3F5003FEED100239D
:103C200018460837BD4680BD00380240007000408D
:103C300080B586B000AF78600023FB757B68002BF1
:103C400001D1012345E37B681B680F2B04D940F2A7
:103C500063119248FDF758FB7B681B6803F0010372
:103C6000002B00F09A807B685B68002B0ED07B688D
:103C70005B68B3F5803F09D07B685B68B3F5A02F24
:103C800004D040F269118548FDF73EFB844B9B68E8
:103C900003F00C03042B0CD0814B9B6803F00C0346
:103CA000082B12D17E4B5B6803F48003B3F5800FC1
:103CB0000BD17B4B1B6803F40033002B6CD07B686B
:103CC0005B68002B68D1012303E37B685B68B3F575
:103CD000803F06D1724B1B68714A43F480331360F6
:103CE0002EE07B685B68002B0CD16D4B1B686C4A27
:103CF00023F4803313606A4B1B68694A23F48023E2
:103D000013601DE07B685B68B3F5A02F0CD1644B9A
:103D10001B68634A43F480231360614B1B68604A4D
:103D200043F4803313600BE05D4B1B685C4A23F463
:103D3000803313605A4B1B68594A23F48023136065
:103D40007B685B68002B13D0FDF73CFE386108E010
:103D5000FDF738FE02463B69D31A642B01D90323D1
:103D6000B7E24F4B1B6803F40033002BF0D014E094
:103D7000FDF728FE386108E0FDF724FE02463B69A6
:103D8000D31A642B01D90323A3E2454B1B6803F428
:103D90000033002BF0D100E000BF7B681B6803F00C
:103DA0000203002B00F084807B68DB68002B08D0C6
:103DB0007B68DB68012B04D040F29B113748FDF78C
:103DC000A3FA7B681B691F2B04D94FF4CE713348CB
:103DD000FDF79AFA324B9B6803F00C03002B0BD0D3
:103DE0002F4B9B6803F00C03082B1CD12C4B5B68FA
:103DF00003F48003002B16D1294B1B6803F0020348
:103E0000002B05D07B68DB68012B01D0012360E229
:103E1000234B1B6823F0F8027B681B69DB002049F9
:103E200013430B6044E07B68DB68002B23D01C4B02
:103E30001B681B4A43F001031360FDF7C3FD3861A3
:103E400008E0FDF7BFFD02463B69D31A022B01D9FA
:103E500003233EE2124B1B6803F00203002BF0D059
:103E60000F4B1B6823F0F8027B681B69DB000C49D1
:103E700013430B601CE00A4B1B68094A23F0010343
:103E80001360FDF79FFD38610CE0FDF79BFD0246D6
:103E90003B69D31A022B05D903231AE2E8D700089D
:103EA000003802407E4B1B6803F00203002BECD16C
:103EB0007B681B6803F00803002B43D07B685B69B9
:103EC000002B08D07B685B69012B04D04FF4EE71A6
:103ED0007448FDF719FA7B685B69002B19D0704BA9
:103EE0005B6F6F4A43F001035367FDF76BFD386169
:103EF00008E0FDF767FD02463B69D31A022B01D9A2
:103F00000323E6E1664B5B6F03F00203002BF0D066
:103F100018E0634B5B6F624A23F001035367FDF7C0
:103F200051FD386108E0FDF74DFD02463B69D31AAB
:103F3000022B01D90323CCE1594B5B6F03F0020341
:103F4000002BF0D17B681B6803F00403002B00F00A
:103F5000BC807B689B68002B0CD07B689B68012B26
:103F600008D07B689B68052B04D040F206214D48A1
:103F7000FDF7CAF94A4B1B6C03F08053002B0DD19F
:103F8000474B1B6C464A43F080531364444B1B6CF5
:103F900003F08053BB60BB680123FB75424B1B6879
:103FA00003F48073002B18D13F4B1B683E4A43F447
:103FB00080731360FDF706FD386108E0FDF702FD30
:103FC00002463B69D31A642B01D9032381E1364BA6
:103FD0001B6803F48073002BF0D07B689B68012B77
:103FE00006D12F4B1B6F2E4A43F0010313672DE0C0
:103FF0007B689B68002B0CD1294B1B6F284A23F050
:1040000001031367264B1B6F254A23F00403136734
:104010001CE07B689B68052B0CD1214B1B6F204A51
:1040200043F0040313671E4B1B6F1D4A43F001034B
:1040300013670BE01A4B1B6F194A23F00103136738
:10404000174B1B6F164A23F0040313677B689B68AA
:10405000002B15D0FDF7B6FC38610AE0FDF7B2FC85
:1040600002463B69D31A41F28832934201D90323B5
:104070002FE10B4B1B6F03F00203002BEED01BE074
:10408000FDF7A0FC386111E0FDF79CFC02463B699E
:10409000D31A41F28832934208D9032319E100BFB1
:1040A00000380240E8D70008007000408B4B1B6FBF
:1040B00003F00203002BE7D1FB7D012B05D1874BD9
:1040C0001B6C864A23F0805313647B689B69002B2A
:1040D0000CD07B689B69012B08D07B689B69022B05
:1040E00004D040F24A217E48FDF70EF97B689B69B7
:1040F000002B00F0ED80794B9B6803F00C03082B3C
:1041000000F0B4807B689B69022B40F095807B684F
:10411000DB69002B09D07B68DB69B3F5800F04D025
:1041200040F253216E48FDF7EFF87B681B6A012BC4
:1041300003D97B681B6A3F2B04D94FF4157168487B
:10414000FDF7E2F87B685B6A312B04D97B685B6A18
:10415000B3F5D87F04D940F255216148FDF7D4F872
:104160007B689B6A022B10D07B689B6A042B0CD067
:104170007B689B6A062B08D07B689B6A082B04D05F
:1041800040F256215648FDF7BFF87B68DB6A012BE9
:1041900003D97B68DB6A0F2B04D940F257215048C2
:1041A000FDF7B2F84D4B1B684C4A23F08073136047
:1041B000FDF708FC386108E0FDF704FC02463B69A6
:1041C000D31A022B01D9032383E0444B1B6803F06D
:1041D0000073002BF0D17B68DA697B681B6A1A4395
:1041E0007B685B6A9B011A437B689B6A5B08013BA7
:1041F0001B041A437B68DB6A1B061343374A43F0F0
:1042000000535360354B1B68344A43F0807313608E
:10421000FDF7D8FB386108E0FDF7D4FB02463B69A7
:10422000D31A022B01D9032353E02C4B1B6803F054
:104230000073002BF0D04BE0284B1B68274A23F07B
:1042400080731360FDF7BEFB386108E0FDF7BAFB31
:1042500002463B69D31A022B01D9032339E01F4BD5
:104260001B6803F00073002BF0D131E01B4B5B683F
:10427000FB607B689B69012B28D0FB6803F48002FC
:104280007B68DB699A4221D1FB6803F03F027B68BF
:104290001B6A9A421AD1FA6847F6C07313407A68CB
:1042A000526A9201934211D1FB6803F440327B6859
:1042B0009B6A5B08013B1B049A4207D1FB6803F031
:1042C00070627B68DB6A1B069A4201D0012300E022
:1042D000002318461837BD4680BD00BF0038024095
:1042E000E8D7000880B584B000AF7860396000235B
:1042F000FB607B68002B01D101238CE17B681B688C
:10430000002B03D07B681B680F2B04D940F2DD2102
:104310008748FCF7F9FF3B68002B31D03B68012B45
:104320002ED03B68022B2BD03B68032B28D03B6858
:10433000042B25D03B68052B22D03B68062B1FD0D1
:104340003B68072B1CD03B68082B19D03B68092B16
:1043500016D03B680A2B13D03B680B2B10D03B6860
:104360000C2B0DD03B680D2B0AD03B680E2B07D0D1
:104370003B680F2B04D040F2DE216D48FCF7C4FFF0
:104380006C4B1B6803F00F033A689A4210D9694BD3
:104390001B6823F00F0267493B6813430B60654BB2
:1043A0001B6803F00F033A689A4201D0012332E1FF
:1043B0007B681B6803F00203002B49D07B681B68F5
:1043C00003F00403002B05D05B4B9B685A4A43F46F
:1043D000E05393607B681B6803F00803002B05D053
:1043E000554B9B68544A43F4604393607B689B68D9
:1043F000002B24D07B689B68802B20D07B689B6837
:10440000902B1CD07B689B68A02B18D07B689B6886
:10441000B02B14D07B689B68C02B10D07B689B6846
:10442000D02B0CD07B689B68E02B08D07B689B6806
:10443000F02B04D040F202313D48FCF765FF3E4BC3
:104440009B6823F0F0027B689B683B4913438B60B9
:104450007B681B6803F00103002B51D07B685B680D
:10446000002B0CD07B685B68012B08D07B685B68F5
:10447000022B04D040F209312D48FCF745FF7B6840
:104480005B68012B07D12C4B1B6803F40033002B16
:1044900015D10123BFE07B685B68022B07D1264B57
:1044A0001B6803F00073002B09D10123B3E0224BFA
:1044B0001B6803F00203002B01D10123ABE01E4B6C
:1044C0009B6823F003027B685B681B4913438B6086
:1044D000FDF778FAF8600AE0FDF774FA0246FB6827
:1044E000D31A41F28832934201D9032393E0124B4D
:1044F0009B6803F00C027B685B689B009A42EBD1DF
:104500000C4B1B6803F00F033A689A4216D2094B12
:104510001B6823F00F0207493B6813430B60054BF0
:104520001B6803F00F033A689A4207D0012372E038
:10453000E8D70008003C0240003802407B681B6856
:1045400003F00403002B25D07B68DB68002B18D018
:104550007B68DB68B3F5805F13D07B68DB68B3F5FD
:10456000A05F0ED07B68DB68B3F5C05F09D07B68C5
:10457000DB68B3F5E05F04D040F246312848FCF731
:10458000C3FE284B9B6823F4E0527B68DB68254917
:1045900013438B607B681B6803F00803002B26D055
:1045A0007B681B69002B18D07B681B69B3F5805FA3
:1045B00013D07B681B69B3F5A05F0ED07B681B69C5
:1045C000B3F5C05F09D07B681B69B3F5E05F04D029
:1045D00040F24D311248FCF797FE124B9B6823F4D2
:1045E00060427B681B69DB000E4913438B6000F05F
:1045F00021F802460B4B9B681B0903F00F030A4985
:10460000CB5C22FA03F3094A1360094B1B68184676
:10461000FCF7BEFE002318461037BD4680BD00BF24
:10462000E8D700080038024098D9000800000020B0
:10463000040000202DE9B04F94B000AF00237B644C
:104640000023FB6400233B640023BB64794B9B681D
:1046500003F00C03082B0DD0082B00F2E180002B97
:1046600002D0042B03D0DBE0734BBB64DBE0734B65
:10467000BB64D8E06F4B5B6803F03F037B646D4B1A
:104680005B6803F48003002B63D06A4B5B689B0973
:104690000022BB63FA63BB6BC3F308033B630023D5
:1046A0007B63D7E90C4522462B464FF000004FF0C4
:1046B0000001590141EAD261500102460B462146F0
:1046C000511A3961294663EB01037B614FF0000207
:1046D0004FF00003D7E904AB59468B01514643EA3A
:1046E000916351468A015146B2EB0108594663EB8A
:1046F00001094FF000024FF000034FEAC90343EAFB
:1047000058734FEAC80290469946234618EB0303B4
:10471000BB602B4649EB0303FB604FF000024FF0F8
:104720000003D7E9024529464B02214643EAD1530B
:1047300021464A02104619467B6C0022BB62FA628F
:10474000D7E90A23FCF750FA02460B461346FB64EE
:1047500058E0384B5B689B09002218461146C0F3AD
:1047600008033B6200237B62D7E9088942464B4637
:104770004FF000004FF00001590141EAD2615001B1
:1047800002460B464146B2EB010A494663EB010B78
:104790004FF000024FF000034FEA8B1343EA9A6395
:1047A0004FEA8A12B2EB0A0463EB0B054FF00002EA
:1047B0004FF00003EB0043EA5473E20014461D4639
:1047C0004346E3183B604B4645EB03037B604FF0E9
:1047D00000024FF00003D7E9004529468B0221462D
:1047E00043EA915321468A02104619467B6C002207
:1047F000BB61FA61D7E90623FCF7F6F902460B46DE
:104800001346FB640B4B5B681B0C03F00303013383
:104810005B003B64FA6C3B6CB2FBF3F3BB6402E0FD
:10482000054BBB6400BFBB6C18465037BD46BDE8A6
:10483000B08F00BF003802400024F40000127A005C
:1048400080B400AF034B1B681846BD465DF8047B7F
:10485000704700BF0000002080B500AFFFF7F0FFF9
:104860000246054B9B689B0A03F007030349CB5C98
:1048700022FA03F3184680BD00380240A8D9000888
:1048800080B500AFFFF7DCFF0246054B9B685B0B72
:1048900003F007030349CB5C22FA03F3184680BDFB
:1048A00000380240A8D9000880B483B000AF786017
:1048B00039607B680F221A60124B9B6803F0030279
:1048C0007B685A600F4B9B6803F0F0027B689A602C
:1048D0000C4B9B6803F4E0527B68DA60094B9B68E1
:1048E000DB0803F4E0527B681A61074B1B6803F096
:1048F0000F023B681A6000BF0C37BD465DF8047BB1
:10490000704700BF00380240003C024080B588B0CC
:1049100000AF786000237B6100233B610023FB60D4
:104920000023FB610023BB617B681B6803F001036C
:10493000002B40F089807B681B6803F00803002B84
:1049400040F082807B681B6803F01003002B7BD152
:104950007B681B6803F04003002B75D17B681B68E4
:1049600003F08003002B6FD17B681B6803F4807316
:10497000002B69D17B681B6803F40073002B63D1A3
:104980007B681B6803F48063002B5DD17B681B6828
:1049900003F40063002B57D17B681B6803F480533A
:1049A000002B51D17B681B6803F40053002B4BD1C3
:1049B0007B681B6803F48043002B45D17B681B6830
:1049C00003F40043002B3FD17B681B6803F4803362
:1049D000002B39D17B681B6803F40033002B33D1E3
:1049E0007B681B6803F48023002B2DD17B681B6838
:1049F00003F40023002B27D17B681B6803F480138A
:104A0000002B21D17B681B6803F40013002B1BD102
:104A10007B681B6803F48003002B15D17B681B683F
:104A200003F40003002B0FD17B681B6803F0807335
:104A3000002B09D17B681B6803F02003002B03D1F6
:104A400072219548FCF760FC7B681B6803F001034A
:104A5000002B1FD07B685B6B002B08D07B685B6BE7
:104A6000B3F5000F03D078218B48FCF74DFC8B4B3E
:104A70009B688A4A23F400039360884B9A687B689A
:104A80005B6B864913438B607B685B6B002B01D1AA
:104A90000123FB617B681B6803F40023002B29D0F2
:104AA0007B68DB6B002B0DD07B68DB6BB3F5801F65
:104AB00008D07B68DB6BB3F5001F03D088217648F4
:104AC000FCF722FC754BD3F88C3023F440127B6842
:104AD000DB6B72491343C1F88C307B68DB6BB3F539
:104AE000801F01D10123FB617B68DB6B002B01D1AF
:104AF0000123BB617B681B6803F48013002B29D062
:104B00007B681B6C002B0DD07B681B6CB3F5800F92
:104B100008D07B681B6CB3F5000F03D09C215E4866
:104B2000FCF7F2FB5D4BD3F88C3023F440027B683A
:104B30001B6C5A491343C1F88C307B681B6CB3F56E
:104B4000800F01D10123FB617B681B6C002B01D11D
:104B50000123BB617B681B6803F08073002B01D0CD
:104B60000123FB617B681B6803F02003002B00F02E
:104B700086817B681B6BB3F5807F00F0E4807B68E7
:104B80001B6BB3F5007F00F0DE807B681B6B444A33
:104B9000934200F0D8807B681B6B424A934200F03E
:104BA000D2807B681B6B404A934200F0CC807B68CC
:104BB0001B6B3E4A934200F0C6807B681B6B3C4AED
:104BC000934200F0C0807B681B6B3A4A934200F02E
:104BD000BA807B681B6B384A934200F0B4807B68D4
:104BE0001B6B364A934200F0AE807B681B6B344AE5
:104BF000934200F0A8807B681B6B324A934200F01E
:104C0000A2807B681B6B304A934200F09C807B68DB
:104C10001B6B2E4A934200F096807B681B6B2C4ADC
:104C2000934200F090807B681B6B2A4A934200F00D
:104C30008A807B681B6B284A934200F084807B68E3
:104C40001B6B264A93427ED07B681B6B244A93429F
:104C500079D07B681B6B234A934274D07B681B6BB3
:104C6000214A93426FD07B681B6B204A93426AD0E3
:104C70007B681B6B1E4A934265D07B681B6B1D4A89
:104C8000934260D07B681B6B1B4A93425BD07B686E
:104C90001B6B1A4A934233E044D8000800380240A4
:104CA00000030200000303000003040000030500EA
:104CB00000030600000307000003080000030900CA
:104CC00000030A0000030B0000030C0000030D00AA
:104CD00000030E0000030F0000031000000311008A
:104CE000000312000003130000031400000315006A
:104CF000000316000003170000031800000319004A
:104D000021D07B681B6B4C4A93421CD07B681B6B89
:104D10004A4A934217D07B681B6B494A934212D090
:104D20007B681B6B474A93420DD07B681B6B464ADE
:104D3000934208D07B681B6B444A934203D0B7214F
:104D40004348FCF7E1FA434B1B6C424A43F0805363
:104D50001364404B1B6C03F08053BB60BB683E4B3D
:104D60001B683D4A43F480731360FCF72BFE7861A7
:104D700009E0FCF727FE02467B69D31A642B02D9AF
:104D8000032300F09FBD344B1B6803F48073002B9A
:104D9000EFD0304B1B6F03F440733B613B69002B3A
:104DA00036D07B681B6B03F440733A699A422FD06C
:104DB000284B1B6F23F440733B61264B1B6F254A26
:104DC00043F480331367234B1B6F224A23F4803351
:104DD0001367204A3B6913671E4B1B6F03F00103E7
:104DE000012B15D1FCF7EEFD78610BE0FCF7EAFD35
:104DF00002467B69D31A41F28832934202D90323D7
:104E000000F060BD134B1B6F03F00203002BEDD0CD
:104E10007B681B6B03F44073B3F5407F20D10D4BCF
:104E20009B6823F4F8127B68196B0C4B0B40094903
:104E300013438B601AE000BF00031A0000031B003D
:104E400000031C0000031D0000031E0000031F00E0
:104E500044D800080038024000700040FFFCFF0FFB
:104E60009A4B9B68994A23F4F8139360974B1A6FF7
:104E70007B681B6BC3F30B03944913430B677B687D
:104E80001B6803F01003002B1DD07B689B6B002B6D
:104E900008D07B689B6BB3F1807F03D0F1218C48F5
:104EA000FCF732FA894BD3F88C30884A23F08073B0
:104EB000C2F88C30854BD3F88C207B689B6B834980
:104EC0001343C1F88C307B681B6803F48043002BCC
:104ED0001CD07B685B6E002B0DD07B685B6EB3F5DE
:104EE000803F08D07B685B6EB3F5003F03D0FB21A9
:104EF0007748FCF709FA754BD3F8903023F4403229
:104F00007B685B6E71491343C1F890307B681B6806
:104F100003F40043002B1DD07B689B6E002B0ED04A
:104F20007B689B6EB3F5802F09D07B689B6EB3F5D1
:104F3000002F04D040F205116548FCF7E5F9634BFA
:104F4000D3F8903023F440227B689B6E5F49134373
:104F5000C1F890307B681B6803F48033002B1DD0B0
:104F60007B68DB6E002B0ED07B68DB6EB3F5801F99
:104F700009D07B68DB6EB3F5001F04D040F20F113F
:104F80005348FCF7C1F9514BD3F8903023F4401249
:104F90007B68DB6E4D491343C1F890307B681B681A
:104FA00003F40033002B1DD07B681B6F002B0ED049
:104FB0007B681B6FB3F5800F09D07B681B6FB3F55F
:104FC000000F04D040F219114148FCF79DF93F4B06
:104FD000D3F8903023F440027B681B6F3B491343A6
:104FE000C1F890307B681B6803F04003002B1FD092
:104FF0007B685B6C002B10D07B685B6C012B0CD04A
:105000007B685B6C032B08D07B685B6C022B04D045
:1050100040F223112E48FCF777F92C4BD3F890304F
:1050200023F003027B685B6C28491343C1F890307E
:105030007B681B6803F08003002B1FD07B689B6C90
:10504000002B10D07B689B6C042B0CD07B689B6C76
:105050000C2B08D07B689B6C082B04D040F22D11E0
:105060001B48FCF751F9194BD3F8903023F00C0290
:105070007B689B6C15491343C1F890307B681B68B3
:1050800003F48073002B25D07B68DB6C002B10D0E1
:105090007B68DB6C102B0CD07B68DB6C302B08D072
:1050A0007B68DB6C202B04D040F237110848FCF7FA
:1050B0002BF9064BD3F8903023F030027B68DB6C81
:1050C00002491343C1F8903004E000BF00380240A9
:1050D00044D800087B681B6803F40073002B1FD0C2
:1050E0007B681B6D002B10D07B681B6D402B0CD098
:1050F0007B681B6DC02B08D07B681B6D802B04D098
:1051000040F24111A048FCF7FFF8A04BD3F89030D3
:1051100023F0C0027B681B6D9C491343C1F890309B
:105120007B681B6803F48063002B22D07B685B6D77
:10513000002B13D07B685B6DB3F5807F0ED07B684E
:105140005B6DB3F5407F09D07B685B6DB3F5007F85
:1051500004D040F24B118C48FCF7D6F88B4BD3F8B7
:10516000903023F440727B685B6D88491343C1F82B
:1051700090307B681B6803F40063002B22D07B68AF
:105180009B6D002B13D07B689B6DB3F5806F0ED0A9
:105190007B689B6DB3F5406F09D07B689B6DB3F561
:1051A000006F04D040F255117748FCF7ADF8774B0B
:1051B000D3F8903023F440627B689B6D73491343AE
:1051C000C1F890307B681B6803F48053002B22D019
:1051D0007B68DB6D002B13D07B68DB6DB3F5805FE4
:1051E0000ED07B68DB6DB3F5405F09D07B68DB6D6B
:1051F000B3F5005F04D040F25F116348FCF784F818
:10520000624BD3F8903023F440527B68DB6D5F49EA
:105210001343C1F890307B681B6803F40053002BE4
:1052200022D07B681B6E002B13D07B681B6EB3F5FE
:10523000804F0ED07B681B6EB3F5404F09D07B6862
:105240001B6EB3F5004F04D040F269114E48FCF7D5
:105250005BF84E4BD3F8903023F440427B681B6ED2
:105260004A491343C1F890307B681B6803F48003FC
:10527000002B18D07B689B6FB3F1806F08D07B68E0
:105280009B6F002B04D040F273113F48FCF73CF8B1
:105290003E4BD3F8903023F080627B689B6F3B4994
:1052A0001343C1F890307B681B6803F40013002B94
:1052B0001FD07B68DB6FB3F1006F08D07B68DB6FBA
:1052C000002B04D040F27D112F48FCF71DF82F4B26
:1052D000D3F8903023F000627B68DB6F2B491343D7
:1052E000C1F890307B68DB6FB3F1006F01D101230F
:1052F000BB617B681B6803F00803002B01D001230E
:10530000BB617B681B6803F48023002B22D07B6881
:105310005B6F002B13D07B685B6FB3F1807F0ED087
:105320007B685B6FB3F1007F09D07B685B6FB3F183
:10533000407F04D040F295111348FBF7E5FF134B73
:10534000D3F8903023F040727B685B6F0F491343B2
:10535000C1F890307B681B6803F40003002B20D059
:105360007B68D3F88030B3F1805F09D07B68D3F8D5
:105370008030002B04D040F29F110348FBF7C4FF9C
:10538000024BD3F8903003E044D8000800380240C4
:1053900023F080527B68D3F8803010491343C1F862
:1053A0009030FB69012B06D07B681B6803F000730B
:1053B000002B00F05581094B1B68084A23F08063DD
:1053C0001360FCF7FFFA78610AE0FCF7FBFA02468B
:1053D0007B69D31A642B03D9032373E2003802409C
:1053E0009A4B1B6803F00063002BEED17B685B686F
:1053F000312B04D97B685B68B3F5D87F04D94FF4AF
:10540000ED719348FBF780FF7B681B6803F0010395
:10541000002B2ED07B685B6B002B2AD17B689B68AE
:10542000012B03D97B689B68072B04D94FF4F071DB
:105430008748FBF769FF854BD3F884301B0C03F0DA
:1054400003033B61814BD3F884301B0E03F00F0341
:10545000FB607B685B689A013B691B041A43FB682D
:105460001B061A437B689B681B0778491343C1F8E6
:1054700084307B681B6803F40023002B04D07B6816
:10548000DB6BB3F5801F0AD07B681B6803F48013C5
:10549000002B48D07B681B6CB3F5800F43D17B6831
:1054A000DB68012B03D97B68DB680F2B04D94FF431
:1054B000F8716748FBF728FF7B685B6A002B03D015
:1054C0007B685B6A202B04D94FF4F9716048FBF7C5
:1054D0001BFF5E4BD3F884301B0C03F003033B61CE
:1054E0005A4BD3F884301B0F03F00703FB607B6833
:1054F0005B689A013B691B041A437B68DB681B06E7
:105500001A43FB681B0751491343C1F884304F4BC2
:10551000D3F88C3023F01F027B685B6A013B4B4958
:105520001343C1F88C307B681B6803F08073002B39
:1055300032D07B681B69002B10D07B681B69012B64
:105540000CD07B681B69022B08D07B681B69032B7E
:1055500004D040F205213E48FBF7D6FE3B4BD3F882
:1055600084301B0E03F00F033B61384BD3F88430BB
:105570001B0F03F00703FB607B685B689A017B6885
:105580001B691B041A433B691B061A43FB681B0774
:105590002E491343C1F884307B681B6803F0007305
:1055A000002B40D07B681B69002B10D07B681B69E7
:1055B000012B0CD07B681B69022B08D07B681B6910
:1055C000032B04D04FF405712148FBF79DFE7B6847
:1055D0009B68012B03D97B689B68072B04D940F299
:1055E00015211B48FBF790FE7B68DB68012B03D974
:1055F0007B68DB680F2B04D940F216211448FBF7B7
:1056000083FE7B685B689A017B681B691B041A43F5
:105610007B68DB681B061A437B689B681B070B498A
:105620001343C1F88430094B1B68084A43F0806378
:105630001360FCF7C7F978610CE0FCF7C3F9024688
:105640007B69D31A642B05D903233BE10038024060
:1056500044D800089D4B1B6803F00063002BECD07E
:10566000BB69012B40F02D81984B1B68974A23F0B2
:1056700080531360FCF7A6F9786108E0FCF7A2F903
:1056800002467B69D31A642B01D903231AE18F4B9D
:105690001B6803F00053B3F1005FEFD07B685B69D8
:1056A000312B04D97B685B69B3F5D87F04D94FF4FB
:1056B00011718748FBF728FE7B681B6803F4002301
:1056C000002B03D07B68DB6B002B09D07B681B6849
:1056D00003F48013002B48D07B681B6C002B44D153
:1056E0007B689B69012B03D97B689B690F2B04D9CD
:1056F00040F24B217648FBF707FE7B689B6A002B44
:1057000003D07B689B6A202B04D940F24D2170485E
:10571000FBF7FAFD6D4BD3F888301B0C03F0030345
:105720003B616A4BD3F888301B0F03F00703FB6023
:105730007B685B699A013B691B041A437B689B6920
:105740001B061A43FB681B0760491343C1F88830E6
:105750005E4BD3F88C3023F4F8527B689B6A013B94
:105760001B025A491343C1F88C307B681B6803F451
:105770000013002B37D07B68DB6FB3F1006F32D1A1
:105780007B681B6A002B10D07B681B6A012B0CD036
:105790007B681B6A022B08D07B681B6A032B04D032
:1057A0004FF418714A48FBF7AFFD484BD3F88830E7
:1057B0001B0E03F00F033B61444BD3F888301B0FE3
:1057C00003F00703FB607B685B699A017B681B6AD7
:1057D0001B041A433B691B061A43FB681B073B4922
:1057E0001343C1F888307B681B6803F00803002B63
:1057F0004DD07B68DB69012B03D97B68DB69072B04
:1058000004D940F26F213248FBF77EFD7B68DB6AEA
:10581000002B13D07B68DB6AB3F5803F0ED07B682A
:10582000DB6AB3F5003F09D07B68DB6AB3F5403F24
:1058300004D04FF41C712648FBF766FD234BD3F8C8
:1058400088301B0E03F00F033B61204BD3F88830E8
:105850001B0C03F00303FB607B685B699A01FB6828
:105860001B041A433B691B061A437B68DB691B0751
:1058700016491343C1F88830144BD3F88C3023F405
:1058800040327B68DB6A11491343C1F88C300F4BFF
:105890001B680E4A43F080531360FCF793F878615D
:1058A00008E0FCF78FF802467B69D31A642B01D914
:1058B000032307E0054B1B6803F00053B3F1005FBF
:1058C000EFD1002318462037BD4680BD0038024086
:1058D00044D8000880B582B000AF78607B68002BA8
:1058E00001D10123F5E07B681B687C4A934245D0D7
:1058F0007B681B68B3F1804F40D07B681B68784A97
:1059000093423BD07B681B68764A934236D07B68D3
:105910001B68754A934231D07B681B68734A934277
:105920002CD07B681B68724A934227D07B681B6827
:10593000704A934222D07B681B686F4A93421DD005
:105940007B681B686D4A934218D07B681B686C4A61
:10595000934213D07B681B686A4A93420ED07B68DF
:105960001B68694A934209D07B681B68674A934267
:1059700004D04FF48B716648FBF7C6FC7B689B68CC
:10598000002B14D07B689B68102B10D07B689B6821
:10599000202B0CD07B689B68402B08D07B689B68D1
:1059A000602B04D040F217115948FBF7ADFC7B681F
:1059B0001B69002B0ED07B681B69B3F5807F09D073
:1059C0007B681B69B3F5007F04D04FF48C7150489D
:1059D000FBF79AFC7B681B68B3F1804F04D07B68AF
:1059E0001B68414A934207D17B68DB68002B14BFD8
:1059F00001230023DBB20EE07B68DB68002B06D0BE
:105A00007B68DB68B3F5803F01D2012300E000230F
:105A100003F00103DBB2002B04D140F219113C4822
:105A2000FBF772FC7B689B69002B08D07B689B6945
:105A3000802B04D04FF48D713548FBF765FC7B68F3
:105A400093F83D30DBB2002B06D17B68002283F84F
:105A50003C20786800F05EF87B68022283F83D20E5
:105A60007B681A687B6804331946104600F072FAA6
:105A70007B68012283F848207B68012283F83E205E
:105A80007B68012283F83F207B68012283F8402055
:105A90007B68012283F841207B68012283F8422041
:105AA0007B68012283F843207B68012283F844202D
:105AB0007B68012283F845207B68012283F8462019
:105AC0007B68012283F847207B68012283F83D2010
:105AD000002318460837BD4680BD00BF00000140C6
