:020000040800F2
:100000000000052005190008991500089F15000833
:10001000A5150008AB150008B11500080000000088
:100020000000000000000000000000004175000812
:10003000B71500080000000051770008B9770008E4
:1000400055190008551900085519000855190008D8
:1000500055190008551900085519000855190008C8
:1000600055190008C515000855190008551900084C
:1000700055190008551900085519000855190008A8
:100080005519000855190008551900085519000898
:100090005519000855190008551900085519000888
:1000A0005519000855190008551900085519000878
:1000B0005519000855190008551900085519000868
:1000C000551900085519000855190008D5150008DC
:1000D000551900085519000855190008E9150008B8
:1000E000FD15000855190008551900085519000894
:1000F0005519000855190008551900085519000828
:100100005519000855190008551900085519000817
:1001100055190008551900080D1600085519000852
:1001200055190008551900085519000855190008F7
:10013000551900082116000855190008551900081E
:1001400055190008551900085519000835160008FA
:1001500055190008551900085519000855190008C7
:1001600055190008551900085519000855190008B7
:10017000551900085519000855190008000000001D
:100180005519000855190008551900085519000897
:100190005519000855190008551900085519000887
:1001A0005519000855190008551900085519000877
:1001B0005519000855190008551900085519000867
:0801C00055190008551900084B
:1001D00010B5054C237833B9044B13B10448AFF381
:1001E00000800123237010BDE0010020000000000A
:1001F00084C6000808B5034B1BB103490348AFF39D
:10020000008008BD00000000E401002084C6000852
:10021000034613F8012B002AFBD1181A0138704746
:1002200001F0FF01102A2BDB10F0070F08D010F8A7
:10023000013B013A8B422DD010F0070F42B3F6D1AB
:10024000F0B441EA012141EA014122F007047FF0C4
:1002500000070023F0E80256083C85EA010586EA1B
:10026000010685FA47F5A3FA87F586FA47F6A5FA57
:1002700087F68EB9EED1F0BC01F0FF0102F0070263
:1002800032B110F8013B013A83EA010313B1F8D10E
:100290000020704701387047002D06BF35460338EF
:1002A000073815F0010F07D1013015F4807F02BF28
:1002B000013015F4C03F0130F0BC0138704700BF79
:1002C00081F0004102E000BF83F0004330B54FEA07
:1002D00041044FEA430594EA050F08BF90EA020F74
:1002E0001FBF54EA000C55EA020C7FEA645C7FEA07
:1002F000655C00F0E2804FEA5454D4EB5555B8BF2A
:100300006D420CDD2C4480EA020281EA030382EA9A
:10031000000083EA010180EA020281EA0303362D2C
:1003200088BF30BD11F0004F4FEA01314FF4801CFF
:100330004CEA113102D0404261EB410113F0004F11
:100340004FEA03334CEA133302D0524263EB4303C8
:1003500094EA050F00F0A780A4F10104D5F1200E66
:100360000DDB02FA0EFC22FA05F2801841F10001C1
:1003700003FA0EF2801843FA05F359410EE0A5F195
:1003800020050EF1200E012A03FA0EFC28BF4CF0C6
:10039000020C43FA05F3C01851EBE37101F000457C
:1003A00007D54FF0000EDCF1000C7EEB00006EEB89
:1003B0000101B1F5801F1BD3B1F5001F0CD3490813
:1003C0005FEA30004FEA3C0C04F101044FEA44526A
:1003D00012F5800F80F09A80BCF1004F08BF5FEAF1
:1003E000500C50F1000041EB045141EA050130BDD1
:1003F0005FEA4C0C404141EB0101013C28BFB1F5E3
:10040000801FE9D291F0000F04BF01460020B1FA2D
:1004100081F308BF2033A3F10B03B3F120020CDA00
:100420000C3208DD02F1140CC2F10C0201FA0CF0DE
:1004300021FA02F10CE002F11402D8BFC2F1200C43
:1004400001FA02F120FA0CFCDCBF41EA0C019040F9
:10045000E41AA2BF01EB0451294330BD6FEA040442
:100460001F3C1CDA0C340EDC04F11404C4F120022D
:1004700020FA04F001FA02F340EA030021FA04F33F
:1004800045EA030130BDC4F10C04C4F1200220FA96
:1004900002F001FA04F340EA0300294630BD21FAD4
:1004A00004F0294630BD94F0000F83F4801306BF9A
:1004B00081F480110134013D4EE77FEA645C18BF8E
:1004C0007FEA655C29D094EA050F08BF90EA020F25
:1004D00005D054EA000C04BF1946104630BD91EA1D
:1004E000030F1EBF0021002030BD5FEA545C05D120
:1004F0004000494128BF41F0004130BD14F580045F
:100500003CBF01F5801130BD01F0004545F0FE41D2
:1005100041F470014FF0000030BD7FEA645C1ABF07
:10052000194610467FEA655C1CBF0B46024650EA3E
:10053000013406BF52EA033591EA030F41F400216A
:1005400030BD00BF90F0000F04BF0021704730B5F0
:100550004FF4806404F132044FF000054FF00001C5
:1005600050E700BF90F0000F04BF0021704730B586
:100570004FF4806404F1320410F0004548BF40425B
:100580004FF000013EE700BF42004FEAE2014FEAB0
:1005900031014FEA02701FBF12F07F4393F07F4F8B
:1005A00081F06051704732F07F4208BF704793F08E
:1005B0007F4F04BF41F40021704730B54FF46074A1
:1005C00001F0004521F000411CE700BF50EA0102A4
:1005D00008BF704730B54FF000050AE050EA01024D
:1005E00008BF704730B511F0004502D5404261EBBD
:1005F00041014FF4806404F132045FEA915C3FF4FE
:10060000D8AE4FF003025FEADC0C18BF03325FEA9A
:10061000DC0C18BF033202EBDC02C2F1200300FA4B
:1006200003FC20FA02F001FA03FE40EA0E0021FA70
:1006300002F11444BDE600BF70B54FF0FF0C4CF45E
:10064000E06C1CEA11541DBF1CEA135594EA0C0F10
:1006500095EA0C0F00F0DEF82C4481EA030621EA4B
:100660004C5123EA4C5350EA013518BF52EA033586
:1006700041F4801143F4801338D0A0FB02CE4FF038
:100680000005E1FB02E506F00042E0FB03E54FF068
:100690000006E1FB03569CF0000F18BF4EF0010E60
:1006A000A4F1FF04B6F5007F64F5407404D25FEA5C
:1006B0004E0E6D4146EB060642EAC62141EA55510F
:1006C0004FEAC52040EA5E504FEACE2EB4F1FD0C51
:1006D00088BFBCF5E06F1ED8BEF1004F08BF5FEACF
:1006E000500E50F1000041EB045170BD06F0004681
:1006F00046EA010140EA020081EA0301B4EB5C042E
:10070000C2BFD4EB0C0541EA045170BD41F4801125
:100710004FF0000E013C00F3AB8014F1360FDEBF4A
:10072000002001F0004170BDC4F10004203C35DA26
:100730000C341BDC04F11404C4F1200500FA05F3A9
:1007400020FA04F001FA05F240EA020001F000424A
:1007500021F0004110EBD37021FA04F642EB0601C0
:100760005EEA430E08BF20EAD37070BDC4F10C04EA
:10077000C4F1200500FA04F320FA05F001FA04F2AE
:1007800040EA020001F0004110EBD37041F100019A
:100790005EEA430E08BF20EAD37070BDC4F12005A5
:1007A00000FA05F24EEA020E20FA04F301FA05F20D
:1007B00043EA020321FA04F001F0004121FA04F2B5
:1007C00020EA020000EBD3705EEA430E08BF20EA85
:1007D000D37070BD94F0000F0FD101F000464000BF
:1007E00041EB010111F4801F08BF013CF7D041EA41
:1007F000060195F0000F18BF704703F00046520045
:1008000043EB030313F4801F08BF013DF7D043EA15
:100810000603704794EA0C0F0CEA135518BF95EACB
:100820000C0F0CD050EA410618BF52EA4306D1D152
:1008300081EA030101F000414FF0000070BD50EA71
:10084000410606BF1046194652EA430619D094EAFB
:100850000C0F02D150EA013613D195EA0C0F05D1E5
:1008600052EA03361CBF104619460AD181EA030139
:1008700001F0004141F0FE4141F470014FF00000F1
:1008800070BD41F0FE4141F4780170BD70B54FF08C
:10089000FF0C4CF4E06C1CEA11541DBF1CEA13550C
:1008A00094EA0C0F95EA0C0F00F0A7F8A4EB0504EE
:1008B00081EA030E52EA03354FEA013100F08880E5
:1008C0004FEA03334FF0805545EA131343EA1263AE
:1008D0004FEA022245EA111545EA10654FEA002663
:1008E0000EF000419D4208BF964244F1FD0404F51C
:1008F000407402D25B084FEA3202B61A65EB030578
:100900005B084FEA32024FF480104FF4002CB6EB34
:10091000020E75EB030E22BFB61A754640EA0C00B4
:100920005B084FEA3202B6EB020E75EB030E22BFF4
:10093000B61A754640EA5C005B084FEA3202B6EB35
:10094000020E75EB030E22BFB61A754640EA9C00F4
:100950005B084FEA3202B6EB020E75EB030E22BFC4
:10096000B61A754640EADC0055EA060E18D04FEA82
:10097000051545EA16754FEA06164FEAC30343EA22
:1009800052734FEAC2025FEA1C1CC0D111F4801FEF
:100990000BD141EA00014FF000004FF0004CB6E7E8
:1009A00011F4801F04BF01430020B4F1FD0C88BF87
:1009B000BCF5E06F3FF6AFAEB5EB030C04BFB6EB92
:1009C000020C5FEA500C50F1000041EB045170BD85
:1009D0000EF0004E4EEA113114EB5C04C2BFD4EBB2
:1009E0000C0541EA045170BD41F480114FF0000E36
:1009F000013C90E645EA060E8DE60CEA135594EAB2
:100A00000C0F08BF95EA0C0F3FF43BAF94EA0C0FB4
:100A10000AD150EA01347FF434AF95EA0C0F7FF429
:100A200025AF104619462CE795EA0C0F06D152EA7D
:100A300003353FF4FDAE1046194622E750EA410661
:100A400018BF52EA43067FF4C5AE50EA41047FF472
:100A50000DAF52EA43057FF4EBAE12E74FF0FF3CD7
:100A600006E000BF4FF0010C02E000BF4FF0010CA8
:100A70004DF804CD4FEA410C7FEA6C5C4FEA430C21
:100A800018BF7FEA6C5C1BD001B050EA410C0CBF70
:100A900052EA430C91EA030F02BF90EA020F0020D2
:100AA000704710F1000F91EA030F58BF994208BF39
:100AB00090422CBFD8176FEAE37040F001007047F6
:100AC0004FEA410C7FEA6C5C02D150EA013C07D14D
:100AD0004FEA430C7FEA6C5CD6D152EA033CD3D098
:100AE0005DF8040B704700BF8446104662468C4692
:100AF0001946634600E000BF01B5FFF7B7FF0028C5
:100B000048BF10F1000F01BD4DF808EDFFF7F4FFED
:100B10000CBF012000205DF808FB00BF4DF808ED78
:100B2000FFF7EAFF34BF012000205DF808FB00BF9B
:100B30004DF808EDFFF7E0FF94BF012000205DF8BD
:100B400008FB00BF4DF808EDFFF7CEFF94BF012072
:100B500000205DF808FB00BF4DF808EDFFF7C4FF6B
:100B600034BF012000205DF808FB00BF4FEA410CB4
:100B70007FEA6C5C02D150EA013C0AD14FEA430C97
:100B80007FEA6C5C02D152EA033C02D14FF00000D4
:100B900070474FF0010070474FEA410212F5001212
:100BA00015D211D56FF47873B3EB625212D94FEAB4
:100BB000C12343F0004343EA505311F0004F23FA9E
:100BC00002F018BF404270474FF00000704750EAF3
:100BD000013005D111F0004008BF6FF000407047B0
:100BE0004FF00000704700BF53B94AB9002908BF51
:100BF00000281CBF4FF0FF314FF0FF3000F074B9F8
:100C0000ADF1080C6DE904CE00F006F8DDF804E063
:100C1000DDE9022304B070472DE9F047089D044642
:100C20008E46002B4DD18A42944669D9B2FA82F29F
:100C300052B101FA02F3C2F1200120FA01F10CFADB
:100C400002FC41EA030E94404FEA1C48210CBEFB13
:100C5000F8F61FFA8CF708FB16E341EA034306FB9C
:100C600007F199420AD91CEB030306F1FF3080F02B
:100C70001F81994240F21C81023E63445B1AA4B278
:100C8000B3FBF8F008FB103344EA034400FB07F71A
:100C9000A7420AD91CEB040400F1FF3380F00A815B
:100CA000A74240F207816444023840EA0640E41B50
:100CB00000261DB1D4400023C5E900433146BDE8FC
:100CC000F0878B4209D9002D00F0EF800026C5E99E
:100CD000000130463146BDE8F087B3FA83F6002EB6
:100CE0004AD18B4202D3824200F2F980841A61EB2E
:100CF000030301209E46002DE0D0C5E9004EDDE74C
:100D000002B9FFDEB2FA82F2002A40F09280A1EB33
:100D10000C014FEA1C471FFA8CFE0126200CB1FB88
:100D2000F7F307FB131140EA01410EFB03F0884281
:100D300008D91CEB010103F1FF3802D2884200F20E
:100D4000CB804346091AA4B2B1FBF7F007FB1011A0
:100D500044EA01440EFB00FEA64508D91CEB04043E
:100D600000F1FF3102D2A64500F2BB800846A4EB99
:100D70000E0440EA03409CE7C6F12007B34022FA84
:100D800007FC4CEA030C20FA07F401FA06F31C43B3
:100D9000F9404FEA1C4900FA06F3B1FBF9F8200CC0
:100DA0001FFA8CFE09FB181140EA014108FB0EF006
:100DB000884202FA06F20BD91CEB010108F1FF3A56
:100DC00080F08880884240F28580A8F10208614462
:100DD000091AA4B2B1FBF9F009FB101144EA014170
:100DE00000FB0EFE8E4508D91CEB010100F1FF341B
:100DF0006CD28E456AD90238614440EA0840A0FBB3
:100E00000294A1EB0E01A142C846A64656D353D088
:100E10005DB1B3EB080261EB0E0101FA07F722FAAC
:100E200006F3F1401F43C5E9007100263146BDE8D5
:100E3000F087C2F12003D8400CFA02FC21FA03F338
:100E4000914001434FEA1C471FFA8CFEB3FBF7F0B9
:100E500007FB10360B0C43EA064300FB0EF69E42DE
:100E600004FA02F408D91CEB030300F1FF382FD277
:100E70009E422DD9023863449B1B89B2B3FBF7F61F
:100E800007FB163341EA034106FB0EF38B4208D9F8
:100E90001CEB010106F1FF3816D28B4214D9023E39
:100EA0006144C91A46EA004638E72E46284605E757
:100EB0000646E3E61846F8E64B45A9D2B9EB020828
:100EC00064EB0C0E0138A3E74646EAE7204694E7B8
:100ED0004046D1E7D0467BE7023B614432E73046EB
:100EE00009E76444023842E7704700BF80B500AFAD
:100EF000024809F013FC00BF80BD00BFA0C6000877
:100F000080B500AF044A0021044805F09FFE034667
:100F1000034A136000BF80BDE4C60008250F000827
:100F2000AC02002080B582B000AF78600121194882
:100F300001F01DFA502005F02FFF0821154801F09F
:100F400016FA502005F028FF0821134801F00FFA87
:100F5000502005F021FF20210F4801F008FA502011
:100F600005F01AFF4FF480610B4801F000FA5020A1
:100F700005F012FF4FF40051074801F0F8F9FFF7B0
:100F8000B5FF064809F050FC4FF47A7005F004FFF5
:100F9000CCE700BF0008024000140240B4C60008BD
:100FA00080B58CB000AF07F11C0300221A605A60B4
:100FB0009A60DA601A617A4B1B6B794A43F004033A
:100FC0001363774B1B6B03F00403BB61BB69744B6A
:100FD0001B6B734A43F020031363714B1B6B03F0CD
:100FE00020037B617B696E4B1B6B6D4A43F0800372
:100FF00013636B4B1B6B03F080033B613B69684BD6
:101000001B6B674A43F001031363654B1B6B03F0D3
:101010000103FB60FB68624B1B6B614A43F00203F8
:1010200013635F4B1B6B03F00203BB60BB685C4B3D
:101030001B6B5B4A43F008031363594B1B6B03F0B4
:1010400008037B607B68564B1B6B554A43F040039B
:101050001363534B1B6B03F040033B603B68002260
:1010600042F228414F4801F069F9002209214E4817
:1010700001F064F9002244F281014C4801F05EF96C
:1010800000224FF480414A4801F058F900224021E3
:10109000484801F053F94FF40053FB614FF48813B3
:1010A0003B6200237B6207F11C0319463E4800F0B7
:1010B00099FF42F22843FB6101233B6200237B62DC
:1010C0000023BB6207F11C031946364800F08AFF73
:1010D0000923FB6101233B6200237B620023BB6287
:1010E00007F11C031946304800F07CFF0823FB6120
:1010F0004FF488133B6200237B6207F11C031946FF
:101100002D4800F06FFF44F28103FB6101233B6235
:1011100000237B620023BB6207F11C0319462348AE
:1011200000F060FF4FF48043FB6101233B6200232A
:101130007B620023BB6207F11C0319461C4800F0C8
:1011400051FF4023FB6101233B6200237B620023AC
:10115000BB6207F11C031946164800F043FF8023C9
:10116000FB6100233B6200237B6207F11C031946ED
:10117000104800F037FF00220521092000F082FD11
:10118000092000F09BFD00220521282000F07AFDB7
:10119000282000F093FD00BF3037BD4680BD00BF62
:1011A00000380240001402400008024000040240DF
:1011B000000C0240001802400000024080B483B0DE
:1011C00000AF0346FB8000BF0C37BD465DF8047BD3
:1011D000704780B500AF00F06FFC00F00DF8FFF72E
:1011E000DFFE00F0F7FA00F08DF805F0C5FCFFF720
:1011F00087FE05F0F5FCFEE780B594B000AF07F17F
:10120000200330220021184608F036FD07F10C03B8
:1012100000221A605A609A60DA601A6102F036FBA6
:101220002A4B1B6C294A43F080531364274B1B6CD9
:1012300003F08053BB60BB68254B1B68244A43F412
:1012400040431360224B1B6803F440437B607B6880
:1012500001233B624FF4A0237B620223BB634FF464
:101260008003FB6304233B64D8237B640223BB64B9
:101270000923FB6407F12003184602F067FB0346CD
:10128000002B01D000F038F802F010FB0346002BD1
:1012900001D000F031F80F23FB6002233B610023F3
:1012A0007B614FF4A053BB614FF48053FB6107F1A6
:1012B0000C030721184602F0EDFD0346002B01D078
:1012C00000F01AF800BF5037BD4680BD003802401C
:1012D0000070004080B582B000AF78607B681B680A
:1012E000044A934201D100F0F5FB00BF0837BD4628
:1012F00080BD00BF0010004080B400AF72B600BFD8
:10130000FEE7000080B500AF1B4B1C4A1A601A4B69
:101310004FF482725A60184B00229A60164B4FF4B9
:10132000E062DA60144B02221A61134B00225A6108
:10133000114B4FF400729A610F4B0822DA610E4B89
:1013400000221A620C4B00225A620B4B00229A6256
:10135000094B0722DA62084B00221A63064B082267
:101360005A63054803F0DEFB0346002B01D0FFF76C
:10137000C3FF00BF80BD00BFB002002000300140AD
:1013800080B58AB000AF786007F1140300221A60BC
:101390005A609A60DA601A617B681B68294A934236
:1013A0004BD1294B5B6C284A43F480535364264B42
:1013B0005B6C03F480533B613B69234B1B6B224AFC
:1013C00043F001031363204B1B6B03F00103FB602D
:1013D000FB681D4B1B6B1C4A43F0020313631A4B43
:1013E0001B6B03F00203BB60BB6860237B610223BD
:1013F000BB610023FB6103233B6205237B6207F192
:1014000014031946114800F0EDFD20237B610223EF
:10141000BB610023FB6103233B6205237B6207F171
:10142000140319460A4800F0DDFD0022052123209F
:1014300000F028FC232000F041FC00BF2837BD4607
:1014400080BD00BF00300140003802400000024073
:101450000004024080B582B000AF114B1B6C104AF3
:1014600043F0805313640E4B1B6C03F080537B607E
:101470007B680B4B5B6C0A4A43F480435364084B14
:101480005B6C03F480433B603B6800220F216FF0EC
:10149000010000F0F7FB00BF0837BD4680BD00BF6C
:1014A0000038024080B58EB000AF78600023FB6248
:1014B0000023BB62334B1B6C324A43F010031364AE
:1014C000304B1B6C03F01003FB60FB6807F110024C
:1014D00007F114031146184602F002FF3B6AFB6253
:1014E000FB6A002B03D102F0D3FE786304E002F024
:1014F000CFFE03465B007B637B6B234AA2FB032387
:101500009B0C013BBB62214B214A1A601F4B40F2EE
:10151000E732DA601D4ABB6A53601C4B00221A6135
:101520001A4B00229A60194B00229A61174803F067
:10153000C4FC034687F8333097F83330002B1BD1B7
:10154000124803F01BFD034687F8333097F8333019
:10155000002B11D1362000F0B1FB7B680F2B08D88F
:1015600000227968362000F08DFB0A4A7B68136000
:1015700002E0012387F8333097F8333018463837C4
:10158000BD4680BD0038024083DE1B4314030020AB
:10159000001000400400002080B400AFFEE780B4DB
:1015A00000AFFEE780B400AFFEE780B400AFFEE717
:1015B00080B400AFFEE780B400AF00BFBD465DF869
:1015C000047B704780B500AF082000F0EBFE00BF41
:1015D00080BD000080B500AF024803F04FFB00BFA4
:1015E00080BD00BFB002002080B500AF024804F00B
:1015F00015F800BF80BD00BF6403002080B500AFB8
:101600004FF4005000F0CEFE00BF80BD80B500AFAB
:10161000024803F02BFD00BF80BD00BF1403002073
:1016200080B500AF024800F0E9FB00BF80BD00BFFD
:10163000FC01002080B500AF024800F0CBFE00BFE7
:1016400080BD00BFEC03002080B400AF012318462A
:10165000BD465DF8047B704780B582B000AF78600E
:10166000396008F0CFF9034616221A604FF0FF33B5
:1016700018460837BD4680BD80B582B000AF78609F
:101680004FF0FF317868FFF7E7FFFEE780B586B0DF
:1016900000AFF860B9607A6000237B610AE0AFF3C5
:1016A00000800146BB685A1CBA60CAB21A707B69D6
:1016B00001337B617A697B689A42F0DB7B6818466C
:1016C0001837BD4680BD80B586B000AFF860B96000
:1016D0007A6000237B6109E0BB685A1CBA601B7802
:1016E000184605F02FFA7B6901337B617A697B68C4
:1016F0009A42F1DB7B6818461837BD4680BD80B43E
:1017000083B000AF78604FF0FF3318460C37BD460A
:101710005DF8047B704780B483B000AF78603960B7
:101720003B684FF400525A60002318460C37BD4600
:101730005DF8047B704780B483B000AF786001230C
:1017400018460C37BD465DF8047B704780B485B001
:1017500000AFF860B9607A60002318461437BD46C0
:101760005DF8047B7047000080B586B000AF7860FC
:10177000144A154BD31A7B617B693B61134B1B6881
:10178000002B02D1114B124A1A60104B1A687B6869
:1017900013443A699A4207D208F034F903460C22FE
:1017A0001A604FF0FF3309E0084B1B68FB60074BE2
:1017B0001A687B681344054A1360FB68184618379B
:1017C000BD4680BD00000520000800006003002029
:1017D0001051002080B500AF144B154A1A60134B0E
:1017E0004FF4E1325A60114B00229A600F4B0022F5
:1017F000DA600E4B00221A610C4B0C225A610B4B23
:1018000000229A61094B0022DA61084B00221A6219
:10181000064B00225A62054803F02EFE0346002BB9
:1018200001D0FFF769FD00BF80BD00BF6403002049
:101830000048004080B5AAB000AF786007F194037B
:1018400000221A605A609A60DA601A6107F1100388
:1018500084220021184608F00FFA7B681B68264A8C
:10186000934244D14FF480733B610023FB6507F141
:101870001003184602F066FD0346002B01D0FFF767
:101880003BFD1E4B1B6C1D4A43F4802313641B4B12
:101890001B6C03F48023FB60FB68184B1B6B174A1F
:1018A00043F008031363154B1B6B03F00803BB6085
:1018B000BB684FF44073C7F894300223C7F89830E0
:1018C0000123C7F89C300323C7F8A0300723C7F8CB
:1018D000A43007F194031946094800F083FB002265
:1018E0000521272000F0CEF9272000F0E7F900BFFE
:1018F000A837BD4680BD00BF004800400038024008
:10190000000C0240DFF834D00D480E490E4A002387
:1019100002E0D458C4500433C4188C42F9D30B4AA3
:101920000B4C002301E013600432A242FBD300F011
:10193000B1F808F063F9FFF74CFC70470000052090
:1019400000000020E00100200CCB0008E001002096
:101950000C510020FEE780B582B000AF78607B6854
:10196000D3F80033184607F06FFF00BF0837BD46B5
:1019700080BD80B582B000AF78607B68D3F800335B
:10198000184607F0B3FF00BF0837BD4680BD80B5DD
:1019900082B000AF78607B68D3F80033184607F058
:1019A000C8FF00BF0837BD4680BD80B582B000AF1C
:1019B00078600B46FB701346BB707B68D3F800332E
:1019C000184607F0E8FF00BF0837BD4680BD80B568
:1019D00082B000AF78607B68D3F80033184607F018
:1019E0005DFF00BF0837BD4680BD80B582B000AF47
:1019F00078607B68D3F80033184607F069FF00BFB2
:101A00000837BD4680BD80B584B000AF7860002344
:101A1000FB730023BB737B68D3F8A035184600F036
:101A2000E4FD0346FB73FB7B184600F007F8034612
:101A3000BB73BB7B18461037BD4680BD80B485B0F4
:101A400000AF0346FB710023FB73FB79032B17D810
:101A500001A252F823F000BF691A00086F1A0008AB
:101A6000751A00087B1A00080023FB730BE00223A1
:101A7000FB7308E00123FB7305E00223FB7302E024
:101A80000223FB7300BFFB7B18461437BD465DF88D
:101A9000047B704780B400AF064BD3F88830054A0A
:101AA00043F47003C2F8883000BFBD465DF8047B84
:101AB000704700BF00ED00E080B500AF032000F0EC
:101AC000D6F80F20FFF7EEFCFFF7C4FC0023184602
:101AD00080BD000080B400AF064B1B781A46064B51
:101AE0001B681344044A136000BFBD465DF8047BC5
:101AF000704700BF08000020F006002080B400AF4F
:101B0000034B1B681846BD465DF8047B704700BF59
:101B1000F006002080B485B000AF78607B6803F0E9
:101B20000703FB600B4BDB68BB60BA684FF6FF0333
:101B30001340BB60FB681A02BB681A43064B134391
:101B4000BB60044ABB68D36000BF1437BD465DF874
:101B5000047B704700ED00E00000FA0580B400AFA0
:101B6000044BDB681B0A03F007031846BD465DF80B
:101B7000047B704700ED00E080B483B000AF034603
:101B8000FB7197F90730002B0BDBFB7903F01F0289
:101B9000074997F907305B09012000FA02F241F882
:101BA000232000BF0C37BD465DF8047B704700BFA3
:101BB00000E100E080B483B000AF03463960FB7100
:101BC00097F90730002B0ADB3B68DAB20C4997F92A
:101BD00007301201D2B20B4483F800230AE03B68BD
:101BE000DAB20849FB7903F00F03043B1201D2B2C9
:101BF0000B441A7600BF0C37BD465DF8047B704776
:101C000000E100E000ED00E080B489B000AFF860D2
:101C1000B9607A60FB6803F00703FB61FB69C3F1FD
:101C20000703042B28BF0423BB61FB690433062B85
:101C300002D9FB69033B00E000237B614FF0FF32D8
:101C4000BB6902FA03F3DA43BB681A407B699A4026
:101C50004FF0FF317B6901FA03F3D9437B680B40F6
:101C6000134318462437BD465DF8047B704780B5A2
:101C700082B000AF78607868FFF74CFF00BF08378C
:101C8000BD4680BD80B586B000AF0346B9607A60BE
:101C9000FB7300237B61FFF761FF78617A68B968A5
:101CA0007869FFF7B1FF024697F90F3011461846E1
:101CB000FFF780FF00BF1837BD4680BD80B582B0FA
:101CC00000AF0346FB7197F907301846FFF754FF42
:101CD00000BF0837BD4680BD80B584B000AF7860D6
:101CE0007B689B6DFB60FFF709FFB8607B6893F82A
:101CF0003530DBB2022B08D07B6880225A657B68C6
:101D0000002283F83420012352E07B681B681A68A4
:101D10007B681B6822F016021A607B681B685A6990
:101D20007B681B6822F080025A617B681B6C002B69
:101D300003D17B689B6C002B07D07B681B681A68FB
:101D40007B681B6822F008021A607B681B681A68AF
:101D50007B681B6822F001021A6013E0FFF7CEFED9
:101D60000246BB68D31A052B0CD97B6820225A6522
:101D70007B68032283F835207B68002283F83420B7
:101D8000032315E07B681B681B6803F00103002B2D
:101D9000E4D17B68DB6D3F229A40FB689A607B68E8
:101DA000012283F835207B68002283F83420002349
:101DB00018461037BD4680BD80B483B000AF786050
:101DC0007B6893F83530DBB2022B04D07B6880222D
:101DD0005A6501230CE07B68052283F835207B6877
:101DE0001B681A687B681B6822F001021A600023D6
:101DF00018460C37BD465DF8047B704780B582B04D
:101E000000AF78607B681B6803F580535B6903F063
:101E10004003402B12D17B681B6803F58053DB69BC
:101E200003F04003402B09D17B681B6803F5805306
:101E30001A46504B5361786800F0ACF87B681B6819
:101E400003F580535B6903F00103012B13D17B6819
:101E50001B6803F58053DB6903F00103012B0AD1F2
:101E60007B681B6803F580531A464FF001135361DA
:101E7000786800F085F87B681B6803F580535B6920
:101E800003F40043B3F5004F4CD17B681B6803F5A6
:101E90008053DB6903F40043B3F5004F42D17B6804
:101EA000D3F8883043F008027B68C3F888207B6849
:101EB0001B6803F580535B6903F40053B3F5005FBF
:101EC0001AD17B681B6803F580535A692A4B13406B
:101ED0007A68C2F88C307B681B6803F58053DB6935
:101EE0007A68126823F4C03302F58052D3617B68AC
:101EF000E022C3F8842012E07B681B6803F580535E
:101F00005A6948F2806313407A68C2F88C307B6863
:101F10001B6803F580531A4648F280635361786862
:101F200000F042F87B681B689B6B03F00803082BEA
:101F30000ED17B681B68DB6A03F060027B68C3F824
:101F40009420786800F03AF87B680022C3F8942067
:101F50000A4B5B6903F40023002B06D0074B4FF4B8
:101F600000225A61786800F033F800BF0837BD4698
:101F700080BD00BF4000010000207E00003C014009
:101F800080B483B000AF786000BF0C37BD465DF809
:101F9000047B704780B483B000AF786000BF0C371B
:101FA000BD465DF8047B704780B483B000AF7860B5
:101FB00000BF0C37BD465DF8047B704780B483B02A
:101FC00000AF786000BF0C37BD465DF8047B7047FA
:101FD00080B483B000AF786000BF0C37BD465DF8B9
:101FE000047B704780B489B000AF7860396000230B
:101FF000FB6100237B6100233B610023BB61002365
:10200000FB6175E10122FB6902FA03F37B613B6826
:102010001B687A6913403B613A697B699A4240F0D8
:1020200064813B685B6803F00303012B05D03B68C8
:102030005B6803F00303022B30D17B689B68BB61B4
:10204000FB695B00032202FA03F3DB43BA69134026
:10205000BB613B68DA68FB695B0002FA03F3BA69AB
:102060001343BB617B68BA699A607B685B68BB613C
:102070000122FB6902FA03F3DB43BA691340BB6137
:102080003B685B681B0903F00102FB6902FA03F37A
:10209000BA691343BB617B68BA695A603B685B6885
:1020A00003F00303032B17D07B68DB68BB61FB697C
:1020B0005B00032202FA03F3DB43BA691340BB61FE
:1020C0003B689A68FB695B0002FA03F3BA69134341
:1020D000BB617B68BA69DA603B685B6803F0030345
:1020E000022B23D1FB69DA087B68083253F82230CF
:1020F000BB61FB6903F007039B000F2202FA03F3A5
:10210000DB43BA691340BB613B681A69FB6903F0A2
:1021100007039B0002FA03F3BA691343BB61FB692F
:10212000DA087B680832B96943F822107B681B68BB
:10213000BB61FB695B00032202FA03F3DB43BA696C
:102140001340BB613B685B6803F00302FB695B0003
:1021500002FA03F3BA691343BB617B68BA691A6078
:102160003B685B6803F44033002B00F0BE80664B95
:102170005B6C654A43F480435364634B5B6C03F4CC
:102180008043FB60FB68614AFB699B08023352F89D
:102190002330BB61FB6903F003039B000F2202FAAB
:1021A00003F3DB43BA691340BB617B68584A93422F
:1021B00037D07B68574A934231D07B68564A934266
:1021C0002BD07B68554A934225D07B68544A934272
:1021D0001FD07B68534A934219D07B68524A93427E
:1021E00013D07B68514A93420DD07B68504A93428A
:1021F00007D07B684F4A934201D1092312E00A239A
:1022000010E008230EE007230CE006230AE0052374
:1022100008E0042306E0032304E0022302E0012394
:1022200000E00023FA6902F0030292009340BA69C9
:102230001343BB613549FB699B080233BA6941F816
:1022400023203D4B9B68BB613B69DB43BA6913406C
:10225000BB613B685B6803F48013002B03D0BA6951
:102260003B691343BB61344ABB699360324BDB6803
:10227000BB613B69DB43BA691340BB613B685B6888
:1022800003F40013002B03D0BA693B691343BB610D
:10229000294ABB69D360284B5B68BB613B69DB4360
:1022A000BA691340BB613B685B6803F40033002BE1
:1022B00003D0BA693B691343BB611F4ABB695360D2
:1022C0001D4B1B68BB613B69DB43BA691340BB61B3
:1022D0003B685B6803F48033002B03D0BA693B6929
:1022E0001343BB61144ABB691360FB690133FB6193
:1022F000FB690F2B7FF686AE00BF00BF2437BD46BB
:102300005DF8047B704700BF003802400038014090
:10231000000002400004024000080240000C02409D
:10232000001002400014024000180240001C02404D
:102330000020024000240240003C014080B483B0F1
:1023400000AF78600B467B8013467B707B78002B58
:1023500003D07A887B689A6103E07B881A047B68E3
:102360009A6100BF0C37BD465DF8047B704780B4AE
:1023700085B000AF78600B467B807B685B69FB6053
:102380007A88FB6813401A04FB68D9437B880B40AA
:102390001A437B689A6100BF1437BD465DF8047B21
:1023A0007047000080B582B000AF0346FB80084B49
:1023B0005A69FB881340002B06D0054AFB885361FD
:1023C000FB881846FEF7FAFE00BF0837BD4680BD01
:1023D000003C014080B586B000AF78607B681B6828
:1023E0003B613B69FB607B681B68184604F0C2F9DF
:1023F0000346012B40F0F6807B681B68184604F00A
:1024000085F90346002B00F0EC807B681B681846BA
:1024100004F07CF9034603F40013B3F5001F04D164
:102420007B681B684FF400125A617B681B68184672
:1024300004F06CF9034603F48013B3F5801F04D154
:102440007B681B684FF480125A617B681B681846D2
:1024500004F05CF9034603F08063B3F1806F04D1AC
:102460007B681B684FF080625A617B681B68184666
:1024700004F04CF9034603F00203022B03D17B68FE
:102480001B6802225A617B681B68184604F03EF9FB
:10249000034603F00053B3F1005F1CD17B681B6857
:1024A0004FF000525A61FB6803F588631B6803F024
:1024B0000103002B0FD11021386904F06BF8386943
:1024C00004F09CF87B681B680121184604F060F951
:1024D0007868FFF75CFA7B681B68184604F016F909
:1024E000034603F08073B3F1807F02D1786801F076
:1024F00059F97B681B68184604F008F9034603F095
:102500000803082B06D17868FFF725FA7B681B685B
:1025100008225A617B681B68184604F0F7F80346E6
:1025200003F01003102B01D1012300E00023002B46
:1025300012D07B681B689A697B681B6822F01002C6
:102540009A61786801F05CF87B681B689A697B681F
:102550001B6842F010029A617B681B68184604F001
:10256000D5F8034603F00073B3F1007F3AD17B68DE
:102570001B68184604F046F9B86000237B6125E02B
:102580007B6903F00F03BA6822FA03F303F0010337
:10259000002B18D07B695A01FB68134403F5A06334
:1025A0001B6803F40043B3F5004F06D17B69DBB22F
:1025B0001946786800F036F805E07B69DBB2194609
:1025C000786800F051FC7B6901337B617B689B6814
:1025D0007A699A42D4D37B681B684FF000725A61C3
:1025E00000E000BF1837BD4680BD80B582B000AFA7
:1025F00078607B6893F8F832012B01D102230DE05B
:102600007B68012283F8F8227B681B68184604F077
:1026100006FA7B68002283F8F82200231846083760
:10262000BD4680BD80B586B000AF78600B46FB70BC
:102630007B681B687B617B693B61FB78FB607B6827
:102640001B68FA68D2B21146184604F072F80346C5
:1026500003F00403042B1AD1FB685A013B691344AD
:1026600003F5A0631A46042393607A68FB682C2163
:1026700001FB03F31344613307221A707B681B6864
:10268000FA68D2B21146184604F0CDF8A2E07B6891
:102690001B68FA68D2B21146184604F04AF803469D
:1026A00003F48073B3F5807F1BD1FB685A013B694B
:1026B000134403F5A0631A464FF4807393607A685D
:1026C000FB682C2101FB03F31344613308221A70C9
:1026D0007B681B68FA68D2B21146184604F0A3F86A
:1026E00078E07B681B68FA68D2B21146184604F09D
:1026F00020F8034603F00803082B1AD1FB685A019F
:102700003B69134403F5A0631A46082393607A6873
:10271000FB682C2101FB03F31344613306221A707A
:102720007B681B68FA68D2B21146184604F07BF841
:1027300050E07B681B68FA68D2B21146184603F075
:10274000F8FF034603F48063B3F5806F1BD1FB6889
:102750005A013B69134403F5A0631A464FF48063A2
:1027600093607A68FB682C2101FB03F31344613307
:1027700009221A707B681B68FA68D2B211461846A3
:1027800004F051F826E07B681B68FA68D2B2114663
:10279000184603F0CEFF034603F08003802B19D1C7
:1027A000FB685A013B69134403F5A0631A46802372
:1027B00093607A68FB682C2101FB03F313446133B7
:1027C00007221A707B681B68FA68D2B21146184655
:1027D00004F029F87B681B68FA68D2B211461846E3
:1027E00003F0A7FF034603F40073B3F5007F12D193
:1027F0007B681B68FA68D2B21146184604F013F8D9
:10280000FB685A013B69134403F5A0631A464FF471
:102810000073936025E37B681B68FA68D2B21146A7
:10282000184603F086FF034603F00103012B40F036
:10283000E880FB685A013B69134403F5A0631A461C
:10284000202393607B681B69002B19D07A68FB6892
:102850002C2101FB03F3134448331A68FB68590128
:102860003B690B4403F5A0631B69C3F31203D21A3F
:102870007968FB682C2000FB03F30B4450331A608B
:102880007A68FB682C2101FB03F3134461330122B6
:102890001A707A68FB682C2101FB03F313445C3344
:1028A00000221A60FB685A013B69134403F5A063D8
:1028B0001A46012393607A68FB682C2101FB03F31D
:1028C00013443F331B78002B09D07A68FB682C2116
:1028D00001FB03F313443F331B78022B11D17B68B8
:1028E0001B68FA68D2B21146184603F09CFFFB68D9
:1028F0005A013B69134403F5A0631A461023936001
:102900003AE07A68FB682C2101FB03F313443F3360
:102910001B78032B09D07A68FB682C2101FB03F399
:1029200013443F331B78012B26D1FB685A013B69C6
:10293000134403F5A0631B68FA6851013A690A441D
:1029400002F5A06243F0005313607A68FB682C2103
:1029500001FB03F31344603301221A70FB68D9B200
:102960007A68FB682C2000FB03F3134460331B7868
:102970001A467868FFF719F87B681B69012B2BD181
:102980007A68FB682C2101FB03F3134448331B686E
:102990007968FA682C2000FB02F20A44403212885F
:1029A000B3FBF2F303F00103002B00F05A827A68C4
:1029B000FB682C2101FB03F3134454331B7883F091
:1029C0000103D8B27A68FB682C2101FB03F313449E
:1029D000543302461A7044E27A68FB682C2101FBEA
:1029E00003F3134454331B7883F00103D8B27A689D
:1029F000FB682C2101FB03F31344543302461A7085
:102A00002FE27B681B68FA68D2B21146184603F0C1
:102A100090FE034603F02003202B09D1FB685A01E6
:102A20003B69134403F5A0631A462023936018E220
:102A30007B681B68FA68D2B21146184603F079FE2B
:102A4000034603F00203022B40F06B81FB685A013E
:102A50003B69134403F5A0631A46022393607A6826
:102A6000FB682C2101FB03F3134461331B78012B1A
:102A700012D17A68FB682C2101FB03F31344613304
:102A800002221A707A68FB682C2101FB03F31344BD
:102A9000603301221A7035E17A68FB682C2101FB52
:102AA00003F3134461331B78062B12D17A68FB6859
:102AB0002C2101FB03F31344613302221A707A685C
:102AC000FB682C2101FB03F31344603305221A70C9
:102AD00018E17A68FB682C2101FB03F3134461338E
:102AE0001B78072B09D07A68FB682C2101FB03F3C4
:102AF000134461331B78092B59D17A68FB682C2168
:102B000001FB03F31344613302221A707A68FB68F5
:102B10002C2101FB03F313445C331B685A1C7968B6
:102B2000FB682C2000FB03F30B445C331A607A68CB
:102B3000FB682C2101FB03F313445C331B68022B5D
:102B400012D97A68FB682C2101FB03F313445C3330
:102B500000221A607A68FB682C2101FB03F31344FE
:102B6000603304221A70CDE07A68FB682C2101FBE7
:102B700003F31344603302221A70FB685A013B6965
:102B8000134403F5A0631B68BB60BB6823F080435C
:102B9000BB60BB6843F00043BB60FB685A013B6904
:102BA000134403F5A0631A46BB681360AAE07A6871
:102BB000FB682C2101FB03F3134461331B78052BC5
:102BC00009D17A68FB682C2101FB03F313446133BC
:102BD00002221A7096E07A68FB682C2101FB03F34D
:102BE000134461331B78032B09D17A68FB682C21CD
:102BF00001FB03F31344613302221A7082E07A6806
:102C0000FB682C2101FB03F3134461331B78042B75
:102C10003FD17A68FB682C2101FB03F31344613335
:102C200002221A707A68FB682C2101FB03F313441B
:102C3000603302221A707A68FB682C2101FB03F3CF
:102C400013443F331B78002B09D07A68FB682C2192
:102C500001FB03F313443F331B78022B52D1FB6873
:102C60005A013B69134403F5A0631B68BB60BB6852
:102C700023F08043BB60BB6843F00043BB60FB684C
:102C80005A013B69134403F5A0631A46BB681360FD
:102C900038E07A68FB682C2101FB03F313446133AD
:102CA0001B78082B23D17A68FB682C2101FB03F3E6
:102CB0001344613302221A707A68FB682C2101FBED
:102CC00003F313445C331B685A1C7968FB682C209F
:102CD00000FB03F30B445C331A607A68FB682C2119
:102CE00001FB03F31344603304221A700AE07A688C
:102CF000FB682C2101FB03F3134461331B78022B87
:102D000000F0AE80FB68D9B27A68FB682C2000FB2B
:102D100003F3134460331B781A467868FEF745FEC8
:102D20009FE07B681B68FA68D2B21146184603F030
:102D300000FD034603F04003402B23D1FB685A01FA
:102D40003B69134403F5A0631A46402393607A68F5
:102D5000FB682C2101FB03F31344613305221A7035
:102D60007A68FB682C2101FB03F313445C330022D7
:102D70001A607B681B68FA68D2B21146184603F0E5
:102D800052FD6EE07B681B68FA68D2B211461846A5
:102D900003F0CFFC034603F01003102B61D17A68D7
:102DA000FB682C2101FB03F313443F331B78032BF7
:102DB0001AD17A68FB682C2101FB03F313445C33BE
:102DC00000221A607A68FB682C2101FB03F313448C
:102DD000613304221A707B681B68FA68D2B211460C
:102DE000184603F020FD31E07A68FB682C2101FBD6
:102DF00003F313443F331B78002B09D07A68FB6838
:102E00002C2101FB03F313443F331B78022B1DD10C
:102E10007A68FB682C2101FB03F313445C33002226
:102E20001A607B681B69002B10D17A68FB682C2123
:102E300001FB03F31344613304221A707B681B689F
:102E4000FA68D2B21146184603F0EDFCFB685A014D
:102E50003B69134403F5A0631A461023936000E016
:102E600000BF1837BD4680BD80B588B000AF786020
:102E70000B46FB707B681B68FB61FB69BB61FB78E1
:102E80007B617B681B687A69D2B21146184603F0F1
:102E900050FC034603F00403042B1AD17B695A014A
:102EA000BB69134403F5A0631A46042393607A6850
:102EB0007B692C2101FB03F31344613307221A7051
:102EC0007B681B687A69D2B21146184603F0ABFCE6
:102ED00093E37B681B687A69D2B21146184603F007
:102EE00028FC034603F02003202B37D17B695A01CD
:102EF000BB69134403F5A0631A46202393607A68E4
:102F00007B692C2101FB03F313443D331B78012B18
:102F100040F073837A687B692C2101FB03F313442F
:102F20003D3300221A707A687B692C2101FB03F380
:102F30001344603302221A707A687B692C2101FBEA
:102F400003F31344613303221A707B681B687A69A8
:102F5000D2B21146184603F066FC4EE37B681B684C
:102F60007A69D2B21146184603F0E3FB034603F434
:102F70000073B3F5007F12D17B695A01BB6913441A
:102F800003F5A0631A464FF4007393607B681B68D7
:102F90007A69D2B21146184603F045FC2DE37B68EE
:102FA0001B687A69D2B21146184603F0C2FB034689
:102FB00003F00103012B42D17A687B692C2101FBCC
:102FC00003F313445C3300221A607B681B687A6940
:102FD000D2B21146184603F0ACFB034603F040039F
:102FE000402B11D17A687B692C2101FB03F3134438
:102FF0003D3301221A707B695A01BB69134403F502
:10300000A0631A46402393607B695A01BB6913444D
:1030100003F5A0631A46012393607A687B692C212B
:1030200001FB03F31344613301221A707B681B68B0
:103030007A69D2B21146184603F0F5FBDDE27B68EF
:103040001B687A69D2B21146184603F072FB034638
:1030500003F04003402B2CD17A687B692C2101FBC3
:1030600003F31344613305221A707A687B692C21BB
:1030700001FB03F313443D3301221A707A687B6924
:103080002C2101FB03F313445C3300221A607B689C
:103090001B687A69D2B21146184603F0C4FB7B69FB
:1030A0005A01BB69134403F5A0631A464023936099
:1030B000A3E27B681B687A69D2B21146184603F016
:1030C00038FB034603F00803082B1AD17B695A0129
:1030D000BB69134403F5A0631A46082393607A681A
:1030E0007B692C2101FB03F31344613306221A7020
:1030F0007B681B687A69D2B21146184603F093FBCD
:103100007BE27B681B687A69D2B21146184603F0ED
:1031100010FB034603F01003102B40D17A687B6943
:103120002C2101FB03F313445C3300221A607A68FC
:103130007B692C2101FB03F31344613304221A70D1
:103140007A687B692C2101FB03F313443D331B7820
:10315000002B12D17A687B692C2101FB03F3134405
:103160003C331B78002B08D17A687B692C2101FB4A
:1031700003F313443D3301221A707B681B687A699C
:10318000D2B21146184603F04EFB7B695A01BB6967
:10319000134403F5A0631A46102393602DE27B6865
:1031A0001B687A69D2B21146184603F0C2FA034688
:1031B00003F08003802B64D17B681B69002B11D145
:1031C0007A687B692C2101FB03F3134461330722E6
:1031D0001A707B681B687A69D2B21146184603F0F0
:1031E00022FB44E07A687B692C2101FB03F3134442
:1031F0005C331B685A1C79687B692C2000FB03F345
:103200000B445C331A607A687B692C2101FB03F361
:1032100013445C331B68022B20D97A687B692C210C
:1032200001FB03F313445C3300221A607A687B6964
:103230002C2101FB03F31344603304221A707B69D1
:10324000D9B27A687B692C2000FB03F31344603306
:103250001B781A467868FEF7A8FB08E07A687B6955
:103260002C2101FB03F31344603302221A707B69A3
:103270005A01BB69134403F5A0631A468023936087
:10328000BBE17B681B687A69D2B21146184603F02D
:1032900050FA034603F48063B3F5806F1BD17A685C
:1032A0007B692C2101FB03F31344613309221A705B
:1032B0007B681B687A69D2B21146184603F0B3FAEC
:1032C0007B695A01BB69134403F5A0631A464FF4A6
:1032D0008063936091E17B681B687A69D2B2114682
:1032E000184603F026FA034603F00203022B40F0CF
:1032F00084817B695A01BB69134403F5A0631A46B4
:10330000022393607A687B692C2101FB03F3134449
:1033100061331B78012B40F087807A687B692C2110
:1033200001FB03F31344613302221A707A687B694C
:103330002C2101FB03F31344603301221A707A68D5
:103340007B692C2101FB03F313443F331B78022BD1
:103350000AD07A687B692C2101FB03F313443F33C5
:103360001B78032B40F039817B681B69002B13D13C
:103370007A687B692C2101FB03F3134455331B78D6
:1033800083F00103D8B27A687B692C2101FB03F337
:103390001344553302461A707B681B69012B40F0B9
:1033A0001C817A687B692C2101FB03F313444C33A5
:1033B0001B68002B00F011817A687B692C2101FBCE
:1033C00003F313444C331B6879687A692C2000FBA3
:1033D00002F20A44403212881344013B79687A6948
:1033E0002C2000FB02F20A4440321288B3FBF2F3B5
:1033F000FB60FB6803F00103002B00F0EE807A68AD
:103400007B692C2101FB03F3134455331B7883F0B4
:103410000103D8B27A687B692C2101FB03F31344C2
:10342000553302461A70D8E07A687B692C2101FB7B
:1034300003F3134461331B78032B09D17A687B694A
:103440002C2101FB03F31344613302221A70C4E000
:103450007A687B692C2101FB03F3134461331B78E9
:10346000042B12D17A687B692C2101FB03F31344EE
:10347000613302221A707A687B692C2101FB03F305
:103480001344603302221A70A7E07A687B692C210A
:1034900001FB03F3134461331B78052B12D17A68C7
:1034A0007B692C2101FB03F31344613302221A7060
:1034B0007A687B692C2101FB03F3134460330222F9
:1034C0001A708AE07A687B692C2101FB03F31344AC
:1034D00061331B78062B12D17A687B692C2101FBA2
:1034E00003F31344613302221A707A687B692C213A
:1034F00001FB03F31344603305221A706DE07A6810
:103500007B692C2101FB03F3134461331B78072BE8
:1035100009D07A687B692C2101FB03F313446133E2
:103520001B78092B68D17A687B692C2101FB03F396
:103530001344613302221A707A687B692C2101FBE3
:1035400003F313445C331B685A1C79687B692C2095
:1035500000FB03F30B445C331A607A687B692C210F
:1035600001FB03F313445C331B68022B12D97A6806
:103570007B692C2101FB03F313445C3300221A60A6
:103580007A687B692C2101FB03F313446033042226
:103590001A7021E07A687B692C2101FB03F3134444
:1035A000603302221A707B695A01BB69134403F528
:1035B000A0631B683B613B6923F080433B613B692F
:1035C00043F000433B617B695A01BB69134403F537
:1035D000A0631A463B69136000BF7B69D9B27A6861
:1035E0007B692C2000FB03F3134460331B781A46DD
:1035F0007868FEF7DAF900E000BF2037BD4680BDED
:1036000080B58AB000AF78607B681B687B627B6A9C
:103610003B627B681B681B6AFB61FB6903F00F035D
:10362000BB61FB695B0C03F00F037B61FB691B094A
:10363000C3F30A033B617B69022B04D07B69052B32
:1036400000F0A980AAE03B69002B00F0A6807A6810
:10365000BB692C2101FB03F3134444331B68002B8B
:1036600000F09B807A68BB692C2101FB03F31344B3
:1036700050331A683B691A447968BB692C2000FBF7
:1036800003F30B444C331B689A427AD87B68186862
:103690007A68BB692C2101FB03F3134444331B6894
:1036A0003A6992B2194602F0D9FF7A68BB692C21B7
:1036B00001FB03F3134444331A683B691A447968E5
:1036C000BB692C2000FB03F30B4444331A607A6877
:1036D000BB692C2101FB03F3134450331A683B6987
:1036E0001A447968BB692C2000FB03F30B44503368
:1036F0001A60BB695A013B6A134403F5A0631B6956
:10370000DB0CC3F30903FB607A68BB692C2101FB66
:1037100003F3134440331B881A463B6993423CD160
:10372000FB68002B39D0BB695A013B6A134403F58F
:10373000A0631B68BB60BB6823F08043BB60BB68B1
:1037400043F00043BB60BB695A013B6A134403F575
:10375000A0631A46BB6813607A68BB692C2101FB21
:1037600003F3134454331B7883F00103D8B27A680F
:10377000BB692C2101FB03F31344543302461A7036
:103780000BE07A68BB692C2101FB03F3134460331F
:1037900004221A7001E000BF00E000BF00BF28371C
:1037A000BD4680BD80B586B000AF78607B681B6881
:1037B0007B617B693B613B6903F588631B68FB6048
:1037C0003B6903F588631B68BB60BB6823F02E036D
:1037D000BB60FB6803F00203022B0BD1FB6803F014
:1037E0000103012B02D17868FEF7C3F8BB6843F0F0
:1037F0000203BB60FB6803F00803082B32D1BB68EF
:1038000043F00803BB60FB6803F00403042B26D1DC
:103810007B689B69022B13D1FB6803F4C023B3F5CB
:10382000802F06D17B681B680221184602F0B0FF8A
:1038300011E07B681B680121184602F0A9FF0AE02D
:103840007B68DB68012B06D13B6903F580631A4670
:103850004EF6602353607868FEF7B9F802E07868A6
:10386000FEF7C3F8FB6803F02003202B03D1BB68ED
:1038700043F02003BB603B6903F588631A46BB68CD
:10388000136000BF1837BD4680BD000080B400AF94
:10389000054B1B68044A43F48073136000BFBD46A8
:1038A0005DF8047B704700BF0070004080B582B0B7
:1038B00000AF00237B60234B1B6C224A43F08053F4
:1038C0001364204B1B6C03F080533B603B681E4B22
:1038D0001B681D4A43F480331360FEF70FF97860CC
:1038E00009E0FEF70BF902467B68D31AB3F57A7F3D
:1038F00001D9032322E0144B5B6803F48033B3F552
:10390000803FEED1104B1B680F4A43F40033136025
:10391000FEF7F4F8786009E0FEF7F0F802467B68FD
:10392000D31AB3F57A7F01D9032307E0064B5B680E
:1039300003F40033B3F5003FEED1002318460837F7
:10394000BD4680BD003802400070004080B586B0A2
:1039500000AF78600023FB757B68002B01D1012349
:1039600091E27B681B6803F00103002B00F0878065
:10397000964B9B6803F00C03042B0CD0934B9B6875
:1039800003F00C03082B12D1904B5B6803F4800307
:10399000B3F5800F0BD18D4B1B6803F40033002B64
:1039A0006CD07B685B68002B68D101236BE27B687D
:1039B0005B68B3F5803F06D1844B1B68834A43F4B0
:1039C000803313602EE07B685B68002B0CD17F4B4B
:1039D0001B687E4A23F4803313607C4B1B687B4A50
:1039E00023F4802313601DE07B685B68B3F5A02F90
:1039F0000CD1764B1B68754A43F480231360734BDC
:103A00001B68724A43F4803313600BE06F4B1B68F2
:103A10006E4A23F4803313606C4B1B686B4A23F4AB
:103A2000802313607B685B68002B13D0FEF766F879
:103A3000386108E0FEF762F802463B69D31A642B4E
:103A400001D903231FE2614B1B6803F40033002BF1
:103A5000F0D014E0FEF752F8386108E0FEF74EF8B7
:103A600002463B69D31A642B01D903230BE2574B5F
:103A70001B6803F40033002BF0D100E000BF7B682B
:103A80001B6803F00203002B69D0504B9B6803F0C6
:103A90000C03002B0BD04D4B9B6803F00C03082B41
:103AA0001CD14A4B5B6803F48003002B16D1474BB3
:103AB0001B6803F00203002B05D07B68DB68012B39
:103AC00001D00123DFE1414B1B6823F0F8027B6842
:103AD0001B69DB003D4913430B6040E07B68DB68FA
:103AE000002B23D0394B1B68384A43F00103136085
:103AF000FEF704F8386108E0FEF700F802463B697B
:103B0000D31A022B01D90323BDE1304B1B6803F00C
:103B10000203002BF0D02D4B1B6823F0F8027B68CA
:103B20001B69DB00294913430B6018E0274B1B6816
:103B3000264A23F001031360FDF7E0FF386108E037
:103B4000FDF7DCFF02463B69D31A022B01D90323A0
:103B500099E11E4B1B6803F00203002BF0D17B6838
:103B60001B6803F00803002B38D07B685B69002BCF
:103B700019D0164B5B6F154A43F001035367FDF7ED
:103B8000BDFF386108E0FDF7B9FF02463B69D31A73
:103B9000022B01D9032376E10C4B5B6F03F0020388
:103BA000002BF0D01AE0094B5B6F084A23F00103A9
:103BB0005367FDF7A3FF38610AE0FDF79FFF024658
:103BC0003B69D31A022B03D903235CE1003802407E
:103BD000914B5B6F03F00203002BEED17B681B68F7
:103BE00003F00403002B00F0A4808B4B1B6C03F04C
:103BF0008053002B0DD1884B1B6C874A43F08053B8
:103C00001364854B1B6C03F08053BB60BB680123BE
:103C1000FB75824B1B6803F48073002B18D17F4B1C
:103C20001B687E4A43F480731360FDF767FF3861B9
:103C300008E0FDF763FF02463B69D31A642B01D904
:103C4000032320E1754B1B6803F48073002BF0D035
:103C50007B689B68012B06D16F4B1B6F6E4A43F04C
:103C6000010313672DE07B689B68002B0CD16A4B26
:103C70001B6F694A23F001031367674B1B6F664A8A
:103C800023F0040313671CE07B689B68052B0CD1B1
:103C9000614B1B6F604A43F0040313675E4B1B6F5D
:103CA0005D4A43F0010313670BE05B4B1B6F5A4AFD
:103CB00023F001031367584B1B6F574A23F004038B
:103CC00013677B689B68002B15D0FDF717FF3861E1
:103CD0000AE0FDF713FF02463B69D31A41F288322E
:103CE000934201D90323CEE04B4B1B6F03F0020339
:103CF000002BEED014E0FDF701FF38610AE0FDF77C
:103D0000FDFE02463B69D31A41F28832934201D943
:103D10000323B8E0404B1B6F03F00203002BEED1EE
:103D2000FB7D012B05D13C4B1B6C3B4A23F08053A0
:103D300013647B689B69002B00F0A480364B9B6862
:103D400003F00C03082B6BD07B689B69022B49D1D5
:103D5000314B1B68304A23F080731360FDF7CEFEB1
:103D6000386108E0FDF7CAFE02463B69D31A022B10
:103D700001D9032387E0284B1B6803F00073002B55
:103D8000F0D17B68DA697B681B6A1A437B685B6ADF
:103D90009B011A437B689B6A5B08013B1B041A4327
:103DA0007B68DB6A1B0613431B4A43F000535360D6
:103DB000194B1B68184A43F080731360FDF79EFE91
:103DC000386108E0FDF79AFE02463B69D31A022BE0
:103DD00001D9032357E0104B1B6803F00073002B3D
:103DE000F0D04FE00C4B1B680B4A23F0807313603C
:103DF000FDF784FE386108E0FDF780FE02463B696E
:103E0000D31A022B01D903233DE0034B1B6803F0B7
:103E10000073002BF0D135E0003802400070004004
:103E20001B4B5B68FB607B689B69012B28D0FB68A0
:103E300003F480027B68DB699A4221D1FB6803F0BE
:103E40003F027B681B6A9A421AD1FA6847F6C07330
:103E500013407A68526A9201934211D1FB6803F4CD
:103E600040327B689B6A5B08013B1B049A4207D186
:103E7000FB6803F070627B68DB6A1B069A4201D024
:103E8000012300E0002318461837BD4680BD00BF5F
:103E90000038024080B584B000AF786039600023FC
:103EA000FB607B68002B01D10123D0E06A4B1B68CB
:103EB00003F00F033A689A4210D9674B1B6823F04E
:103EC0000F0265493B6813430B60634B1B6803F0AB
:103ED0000F033A689A4201D00123B8E07B681B685F
:103EE00003F00203002B20D07B681B6803F004035F
:103EF000002B05D0594B9B68584A43F4E05393601C
:103F00007B681B6803F00803002B05D0534B9B68AC
:103F1000524A43F460439360504B9B6823F0F00295
:103F20007B689B684D4913438B607B681B6803F07B
:103F30000103002B40D07B685B68012B07D1474B06
:103F40001B6803F40033002B15D101237FE07B684D
:103F50005B68022B07D1414B1B6803F00073002BF9
:103F600009D1012373E03D4B1B6803F00203002BD2
:103F700001D101236BE0394B9B6823F003027B687E
:103F80005B68364913438B60FDF7B8FDF8600AE0C3
:103F9000FDF7B4FD0246FB68D31A41F28832934222
:103FA00001D9032353E02D4B9B6803F00C027B687F
:103FB0005B689B009A42EBD1274B1B6803F00F0311
:103FC0003A689A4210D2244B1B6823F00F02224910
:103FD0003B6813430B60204B1B6803F00F033A68E8
:103FE0009A4201D0012332E07B681B6803F004038E
:103FF000002B08D0194B9B6823F4E0527B68DB68E8
:10400000164913438B607B681B6803F00803002B81
:1040100009D0124B9B6823F460427B681B69DB006C
:104020000E4913438B6000F021F802460B4B9B684E
:104030001B0903F00F030A49CB5C22FA03F3094A78
:104040001360094B1B681846FDF72CFA002318462D
:104050001037BD4680BD00BF003C02400038024022
:1040600008C7000800000020040000202DE9B04F20
:1040700094B000AF00237B640023FB6400233B6407
:104080000023BB64794B9B6803F00C03082B0DD015
:10409000082B00F2E180002B02D0042B03D0DBE0E0
:1040A000734BBB64DBE0734BBB64D8E06F4B5B6866
:1040B00003F03F037B646D4B5B6803F48003002BCC
:1040C00063D06A4B5B689B090022BB63FA63BB6BDE
:1040D000C3F308033B6300237B63D7E90C45224607
:1040E0002B464FF000004FF00001590141EAD26128
:1040F000500102460B462146511A3961294663EBAD
:1041000001037B614FF000024FF00003D7E904ABDD
:1041100059468B01514643EA916351468A01514603
:10412000B2EB0108594663EB01094FF000024FF072
:1041300000034FEAC90343EA58734FEAC8029046A6
:104140009946234618EB0303BB602B4649EB030358
:10415000FB604FF000024FF00003D7E9024529460B
:104160004B02214643EAD15321464A0210461946E2
:104170007B6C0022BB62FA62D7E90A23FCF734FDAC
:1041800002460B461346FB6458E0384B5B689B09BC
:10419000002218461146C0F308033B6200237B62ED
:1041A000D7E9088942464B464FF000004FF0000126
:1041B000590141EAD261500102460B464146B2EB39
:1041C000010A494663EB010B4FF000024FF0000378
:1041D0004FEA8B1343EA9A634FEA8A12B2EB0A045E
:1041E00063EB0B054FF000024FF00003EB0043EAD6
:1041F0005473E20014461D464346E3183B604B46A9
:1042000045EB03037B604FF000024FF00003D7E95A
:10421000004529468B02214643EA915321468A02F2
:10422000104619467B6C0022BB61FA61D7E9062370
:10423000FCF7DAFC02460B461346FB640B4B5B684B
:104240001B0C03F0030301335B003B64FA6C3B6C13
:10425000B2FBF3F3BB6402E0054BBB6400BFBB6C75
:1042600018465037BD46BDE8B08F00BF0038024049
:104270000024F40000127A0080B400AF034B1B68E6
:104280001846BD465DF8047B704700BF0000002063
:1042900080B500AFFFF7F0FF0246054B9B689B0A15
:1042A00003F007030349CB5C22FA03F3184680BDF1
:1042B0000038024018C7000880B500AFFFF7DCFFE8
:1042C0000246054B9B685B0B03F007030349CB5C7D
:1042D00022FA03F3184680BD0038024018C70008D0
:1042E00080B483B000AF786039607B680F221A60B9
:1042F000124B9B6803F003027B685A600F4B9B686C
:1043000003F0F0027B689A600C4B9B6803F4E05268
:104310007B68DA60094B9B68DB0803F4E0527B683A
:104320001A61074B1B6803F00F023B681A6000BF5D
:104330000C37BD465DF8047B704700BF0038024073
:10434000003C024080B588B000AF786000237B61FC
:1043500000233B610023FB600023FB610023BB6162
:104360007B681B6803F00103002B12D0694B9B682C
:10437000684A23F400039360664B9A687B685B6B22
:10438000644913438B607B685B6B002B01D1012375
:10439000FB617B681B6803F40023002B17D05D4B87
:1043A000D3F88C3023F440127B68DB6B59491343FC
:1043B000C1F88C307B68DB6BB3F5801F01D1012322
:1043C000FB617B68DB6B002B01D10123BB617B6848
:1043D0001B6803F48013002B17D04E4BD3F88C309E
:1043E00023F440027B681B6C4A491343C1F88C30AC
:1043F0007B681B6CB3F5800F01D10123FB617B68E7
:104400001B6C002B01D10123BB617B681B6803F08F
:104410008073002B01D00123FB617B681B6803F0D4
:104420002003002B00F08B803A4B1B6C394A43F081
:1044300080531364374B1B6C03F08053BB60BB6825
:10444000354B1B68344A43F480731360FDF756FB09
:10445000786108E0FDF752FB02467B69D31A642BB2
:1044600001D9032357E32C4B1B6803F48073002B03
:10447000F0D0284B1B6F03F440733B613B69002B6A
:1044800035D07B681B6B03F440733A699A422ED097
:10449000204B1B6F23F440733B611E4B1B6F1D4A67
:1044A00043F4803313671B4B1B6F1A4A23F480338A
:1044B0001367184A3B691367164B1B6F03F0010320
:1044C000012B14D1FDF71AFB78610AE0FDF716FB0A
:1044D00002467B69D31A41F28832934201D9032301
:1044E00019E30C4B1B6F03F00203002BEED07B682B
:1044F0001B6B03F44073B3F5407F11D1054B9B68F0
:1045000023F4F8127B68196B044B0B4001491343E9
:104510008B600BE00038024000700040FFFCFF0F92
:10452000AA4B9B68A94A23F4F8139360A74B1A6F10
:104530007B681B6BC3F30B03A44913430B677B68B6
:104540001B6803F01003002B10D0A04BD3F88C3065
:104550009E4A23F08073C2F88C309C4BD3F88C2099
:104560007B689B6B99491343C1F88C307B681B684F
:1045700003F48043002B0AD0944BD3F8903023F4FB
:1045800040327B685B6E91491343C1F890307B6881
:104590001B6803F40043002B0AD08C4BD3F89030F7
:1045A00023F440227B689B6E88491343C1F8903006
:1045B0007B681B6803F48033002B0AD0834BD3F84D
:1045C000903023F440127B68DB6E80491343C1F8BE
:1045D00090307B681B6803F40033002B0AD07B4BC0
:1045E000D3F8903023F440027B681B6F7749134364
:1045F000C1F890307B681B6803F04003002B0AD0A1
:10460000724BD3F8903023F003027B685B6C6F49E8
:104610001343C1F890307B681B6803F08003002BC4
:104620000AD06A4BD3F8903023F00C027B689B6C65
:1046300066491343C1F890307B681B6803F48073AC
:10464000002B0AD0614BD3F8903023F030027B6806
:10465000DB6C5E491343C1F890307B681B6803F440
:104660000073002B0AD0594BD3F8903023F0C002CE
:104670007B681B6D55491343C1F890307B681B68FC
:1046800003F48063002B0AD0504BD3F8903023F40E
:1046900040727B685B6D4D491343C1F890307B6875
:1046A0001B6803F40063002B0AD0484BD3F890300A
:1046B00023F440627B689B6D44491343C1F89030FA
:1046C0007B681B6803F48053002B0AD03F4BD3F860
:1046D000903023F440527B68DB6D3C491343C1F8B2
:1046E00090307B681B6803F40053002B0AD0374BD3
:1046F000D3F8903023F440427B681B6E3349134358
:10470000C1F890307B681B6803F48003002B0AD04B
:104710002E4BD3F8903023F080627B689B6F2B493F
:104720001343C1F890307B681B6803F40013002B1F
:1047300011D0264BD3F8903023F000627B68DB6FFA
:1047400022491343C1F890307B68DB6FB3F1006FEF
:1047500001D10123BB617B681B6803F00803002BB8
:1047600001D00123BB617B681B6803F48023002B0D
:104770000AD0164BD3F8903023F040727B685B6F01
:1047800012491343C1F890307B681B6803F400039F
:10479000002B0BD00D4BD3F8903023F080527B6868
:1047A000D3F8803009491343C1F89030FB69012BDD
:1047B00006D07B681B6803F00073002B00F0D980E3
:1047C000024B1B68014A23F0806301E0003802407D
:1047D0001360FDF793F9786108E0FDF78FF9024661
:1047E0007B69D31A642B01D9032394E16C4B1B68BA
:1047F00003F00063002BF0D17B681B6803F001031A
:10480000002B21D07B685B6B002B1DD1644BD3F850
:1048100084301B0C03F003033B61614BD3F88430FD
:104820001B0E03F00F03FB607B685B689A013B691A
:104830001B041A43FB681B061A437B689B681B0713
:1048400057491343C1F884307B681B6803F4002385
:10485000002B04D07B68DB6BB3F5801F0AD07B682C
:104860001B6803F48013002B2ED07B681B6CB3F500
:10487000800F29D14A4BD3F884301B0C03F003037B
:104880003B61474BD3F884301B0F03F00703FB60F9
:104890007B685B689A013B691B041A437B68DB6891
:1048A0001B061A43FB681B073D491343C1F88430BC
:1048B0003B4BD3F88C3023F01F027B685B6A013BD3
:1048C00037491343C1F88C307B681B6803F0807351
:1048D000002B1DD0324BD3F884301B0E03F00F0396
:1048E0003B612F4BD3F884301B0F03F00703FB60B1
:1048F0007B685B689A017B681B691B041A433B69F0
:104900001B061A43FB681B0725491343C1F8843073
:104910007B681B6803F00073002B11D07B685B6819
:104920009A017B681B691B041A437B68DB681B06C2
:104930001A437B689B681B0719491343C1F88430ED
:10494000174B1B68164A43F080631360FDF7D6F8D7
:10495000786108E0FDF7D2F802467B69D31A642B30
:1049600001D90323D7E00E4B1B6803F00063002B33
:10497000F0D0BB69012B40F0CD80094B1B68084A81
:1049800023F080531360FDF7B9F878610AE0FDF772
:10499000B5F802467B69D31A642B03D90323BAE026
:1049A000003802405E4B1B6803F00053B3F1005F18
:1049B000EDD07B681B6803F40023002B03D07B68D9
:1049C000DB6B002B09D07B681B6803F48013002B82
:1049D0002ED07B681B6C002B2AD1514BD3F888302A
:1049E0001B0C03F003033B614D4BD3F888301B0FC6
:1049F00003F00703FB607B685B699A013B691B045A
:104A00001A437B689B691B061A43FB681B074449D2
:104A10001343C1F88830424BD3F88C3023F4F8525A
:104A20007B689B6A013B1B023D491343C1F88C30F4
:104A30007B681B6803F40013002B22D07B68DB6FBC
:104A4000B3F1006F1DD1364BD3F888301B0E03F045
:104A50000F033B61324BD3F888301B0F03F0070381
:104A6000FB607B685B699A017B681B6A1B041A43C5
:104A70003B691B061A43FB681B0729491343C1F80E
:104A800088307B681B6803F00803002B28D0244B78
:104A9000D3F888301B0E03F00F033B61204BD3F893
:104AA00088301B0C03F00303FB607B685B699A0191
:104AB000FB681B041A433B691B061A437B68DB69CE
:104AC0001B0717491343C1F88830154BD3F88C30B6
:104AD00023F440327B68DB6A11491343C1F88C3000
:104AE0000F4B1B680E4A43F080531360FDF706F826
:104AF000786108E0FDF702F802467B69D31A642B5F
:104B000001D9032307E0064B1B6803F00053B3F100
:104B1000005FEFD1002318462037BD4680BD00BF9F
:104B20000038024080B584B000AF78607B68002B0D
:104B300001D101239DE07B685B6A002B08D17B6873
:104B40005B68B3F5827F09D07B680022DA6105E0FB
:104B50007B6800221A617B6800225A617B68002210
:104B60009A627B6893F85D30DBB2002B06D17B68DC
:104B7000002283F85C207868FCF702FC7B68022244
:104B800083F85D207B681B681A687B681B6822F0CD
:104B900040021A607B68DB68B3F5E06F02D900233E
:104BA000FB6002E04FF48053FB607B68DB68B3F589
:104BB000706F07D07B68DB68B3F5E06F02D07B686D
:104BC00000229A627B685B6803F482727B689B6850
:104BD00003F404431A437B681B6903F002031A437E
:104BE0007B685B6903F001031A437B689B6903F4EC
:104BF00000731A437B68DB6903F038031A437B6850
:104C00001B6A03F0800342EA03017B689B6A03F49A
:104C100000527B681B680A431A607B689B691B0C07
:104C200003F004027B685B6A03F010031A437B689D
:104C30005B6B03F008031A437B68DB6803F4706363
:104C400042EA0301FB6803F480527B681B680A4355
:104C50005A607B681B68DA697B681B6822F4006213
:104C6000DA617B6800221A667B68012283F85D2086
:104C7000002318461037BD4680BD000080B588B0BF
:104C800000AF78607B681B685B68FB617B681B68B2
:104C90009B68BB61BB699B0903F00103002B0FD12B
:104CA000BB6903F00103002B0AD0FB699B0903F0E9
:104CB0000103002B04D07B68DB6C78689847D7E051
:104CC000BB695B0803F00103002B0AD0FB69DB0919
:104CD00003F00103002B04D07B681B6D78689847B4
:104CE000C6E0BB695B0903F00103002B0CD1BB6973
:104CF0009B0903F00103002B06D1BB691B0A03F0DB
:104D00000103002B00F0B480FB695B0903F0010391
:104D1000002B00F0AD80BB699B0903F00103002B61
:104D200023D07B6893F85D30DBB2032B11D07B6816
:104D30001B6E43F004027B681A6600237B617B686C
:104D40001B68DB687B617B681B689B687B617B6998
:104D50000BE000233B617B681B68DB683B617B6881
:104D60001B689B683B613B6982E0BB695B0903F0A0
:104D70000103002B14D07B681B6E43F001027B689B
:104D80001A660023FB607B681B689B68FB607B687E
:104D90001B681A687B681B6822F040021A60FB6877
:104DA000BB691B0A03F00103002B0CD07B681B6E50
:104DB00043F008027B681A660023BB607B681B68AF
:104DC0009B68BB60BB687B681B6E002B4FD07B6809
:104DD0001B685A687B681B6822F0E0025A607B6897
:104DE000012283F85D20FB6903F00203002B04D14C
:104DF000FB6903F00103002B34D07B681B685A6801
:104E00007B681B6822F003025A607B689B6D002B55
:104E100011D07B689B6D184A1A657B689B6D18469C
:104E2000FCF7CAFF0346002B05D07B681B6E43F0DE
:104E300040027B681A667B685B6D002B16D07B682E
:104E40005B6D0D4A1A657B685B6D1846FCF7B4FF15
:104E50000346002B0AD07B681B6E43F040027B6840
:104E60001A6603E0786800F009F800E000BF00BFB0
:104E70002037BD4680BD00BF914E000880B483B08E
:104E800000AF786000BF0C37BD465DF8047B70470B
:104E900080B584B000AF78607B689B6BFB60FB687B
:104EA0000022A3F84620FB680022DA87F868FFF7A3
:104EB000E5FF00BF1037BD4680BD80B582B000AFB2
:104EC00078607B68002B01D1012349E07B6893F86F
:104ED0003D30DBB2002B06D17B68002283F83C20FA
:104EE000786800F041F87B68022283F83D207B68F7
:104EF0001A687B6804331946104600F0FFF97B6896
:104F0000012283F848207B68012283F83E207B68D9
:104F1000012283F83F207B68012283F840207B68D0
:104F2000012283F841207B68012283F842207B68BC
:104F3000012283F843207B68012283F844207B68A8
:104F4000012283F845207B68012283F846207B6894
:104F5000012283F847207B68012283F83D2000234B
:104F600018460837BD4680BD80B483B000AF786076
:104F700000BF0C37BD465DF8047B704780B485B038
:104F800000AF78607B6893F83D30DBB2012B01D035
:104F9000012354E07B68022283F83D207B681B6874
:104FA000DA687B681B6842F00102DA607B681B6884
:104FB000264A934222D07B681B68B3F1804F1DD0F4
:104FC0007B681B68224A934218D07B681B68214A81
:104FD000934213D07B681B681F4A93420ED07B68B4
:104FE0001B681E4A934209D07B681B681C4A934287
:104FF00004D07B681B681B4A934215D17B681B68F1
:105000009A68194B1340FB60FB68062B15D0FB68B0
:10501000B3F5803F11D07B681B681A687B681B68FA
:1050200042F001021A6008E07B681B681A687B681E
:105030001B6842F001021A6000E000BF002318461E
:105040001437BD465DF8047B704700BF0000014087
:105050000004004000080040000C00400004014033
:1050600000400140001800400700010080B582B0F8
:1050700000AF78607B681B681B6903F00203022B9A
:1050800022D17B681B68DB6803F00203022B1BD173
:105090007B681B686FF002021A617B6801221A7735
:1050A0007B681B689B6903F00303002B03D07868BF
:1050B00000F005F905E0786800F0F7F8786800F08E
:1050C00008F97B6800221A777B681B681B6903F06C
:1050D0000403042B22D17B681B68DB6803F0040304
:1050E000042B1BD17B681B686FF004021A617B687C
:1050F00002221A777B681B689B6903F44073002BBC
:1051000003D0786800F0DBF805E0786800F0CDF8AF
:10511000786800F0DEF87B6800221A777B681B68ED
:105120001B6903F00803082B22D17B681B68DB682E
:1051300003F00803082B1BD17B681B686FF0080283
:105140001A617B6804221A777B681B68DB6903F0AD
:105150000303002B03D0786800F0B1F805E078680D
:1051600000F0A3F8786800F0B4F87B6800221A77A2
:105170007B681B681B6903F01003102B22D17B682E
:105180001B68DB6803F01003102B1BD17B681B68C6
:105190006FF010021A617B6808221A777B681B681F
:1051A000DB6903F44073002B03D0786800F087F8C4
:1051B00005E0786800F079F8786800F08AF87B6894
:1051C00000221A777B681B681B6903F00103012B1F
:1051D0000ED17B681B68DB6803F00103012B07D14C
:1051E0007B681B686FF001021A617868FCF772F83F
:1051F0007B681B681B6903F08003802B0ED17B68E2
:105200001B68DB6803F08003802B07D17B681B6879
:105210006FF080021A61786800F01AF97B681B68E9
:105220001B6903F48073B3F5807F0ED17B681B6824
:10523000DB6803F08003802B07D17B681B686FF469
:1052400080721A61786800F00DF97B681B681B6931
:1052500003F04003402B0ED17B681B68DB6803F032
:105260004003402B07D17B681B686FF040021A6136
:10527000786800F038F87B681B681B6903F020032E
:10528000202B0ED17B681B68DB6803F02003202BEA
:1052900007D17B681B686FF020021A61786800F004
:1052A000CDF800BF0837BD4680BD80B483B000AFE5
:1052B000786000BF0C37BD465DF8047B704780B452
:1052C00083B000AF786000BF0C37BD465DF8047B4B
:1052D000704780B483B000AF786000BF0C37BD4624
:1052E0005DF8047B704780B483B000AF786000BF86
:1052F0000C37BD465DF8047B7047000080B485B074
:1053000000AF786039607B681B68FB607B68404A4F
:10531000934213D07B68B3F1804F0FD07B683D4A36
:1053200093420BD07B683C4A934207D07B683B4A50
:10533000934203D07B683A4A934208D1FB6823F03A
:105340007003FB603B685B68FA681343FB607B6833
:105350002F4A93422BD07B68B3F1804F27D07B68D4
:105360002C4A934223D07B682B4A93421FD07B6800
:105370002A4A93421BD07B68294A934217D07B6804
:10538000284A934213D07B68274A93420FD07B6808
:10539000264A93420BD07B68254A934207D07B680C
:1053A000244A934203D07B68234A934208D1FB6886
:1053B00023F44073FB603B68DB68FA681343FB60CF
:1053C000FB6823F080023B685B691343FB607B68EA
:1053D000FA681A603B689A687B68DA623B681A6808
:1053E0007B689A627B680A4A934203D07B680C4AC6
:1053F000934203D13B681A697B681A637B68012278
:105400005A6100BF1437BD465DF8047B704700BF8A
:10541000000001400004004000080040000C004073
:1054200000040140004001400044014000480140A8
:1054300000180040001C00400020004080B483B0F1
:1054400000AF786000BF0C37BD465DF8047B704745
:1054500080B483B000AF786000BF0C37BD465DF804
:10546000047B704780B483B000AF786000BF0C3716
:10547000BD465DF8047B704780B582B000AF7860B0
:105480007B68002B01D1012340E07B68DB6F002BA0
:1054900006D17B68002283F878207868FCF7CAF987
:1054A0007B682422DA677B681B681A687B681B6844
:1054B00022F001021A60786800F0A2FB0346012B7B
:1054C00001D1012322E07B685B6A002B02D078685F
:1054D00000F0FAFD7B681B685A687B681B6822F441
:1054E00090425A607B681B689A687B681B6822F050
:1054F0002A029A607B681B681A687B681B6842F006
:1055000001021A60786800F081FE034618460837E9
:10551000BD4680BD80B58AB002AFF860B9603B601F
:105520001346FB80FB68DB6F202B71D1BB68002B1F
:1055300002D0FB88002B01D101236AE0FB68002226
:10554000C3F88420FB682122DA67FCF7D7FA786178
:10555000FB68FA88A3F85020FB68FA88A3F8522069
:10556000FB689B68B3F5805F08D1FB681B69002B63
:1055700004D10023FB61BB68BB6103E0BB68FB6136
:105580000023BB612CE03B6800937B6900228021F3
:10559000F86800F072FE0346002B01D0032338E0C8
:1055A000FB69002B0BD1BB691B881A46FB681B6883
:1055B000C2F308029A62BB690233BB6107E0FB6970
:1055C0001A78FB681B689A62FB690133FB61FB6810
:1055D000B3F852309BB2013B9AB2FB68A3F8522059
:1055E000FB68B3F852309BB2002BCCD13B680093E0
:1055F0007B6900224021F86800F03FFE0346002B43
:1056000001D0032305E0FB682022DA67002300E0D5
:10561000022318462037BD4680BD000080B5BAB0D1
:1056200000AF78607B681B68DB69C7F8E4307B6893
:105630001B681B68C7F8E0307B681B689B68C7F86D
:10564000DC30D7F8E42040F60F031340C7F8D83019
:10565000D7F8D830002B15D1D7F8E43003F0200369
:10566000002B0FD0D7F8E03003F02003002B09D037
:105670007B689B6E002B00F097827B689B6E78683E
:10568000984791E2D7F8D830002B00F01781D7F86F
:10569000DC3003F00103002B06D1D7F8E020854B66
:1056A0001340002B00F00A81D7F8E43003F0010327
:1056B000002B11D0D7F8E03003F48073002B0BD00F
:1056C0007B681B6801221A627B68D3F8843043F040
:1056D00001027B68C3F88420D7F8E43003F00203AA
:1056E000002B11D0D7F8DC3003F00103002B0BD0D6
:1056F0007B681B6802221A627B68D3F8843043F00F
:1057000004027B68C3F88420D7F8E43003F0040374
:10571000002B11D0D7F8DC3003F00103002B0BD0A5
:105720007B681B6804221A627B68D3F8843043F0DC
:1057300002027B68C3F88420D7F8E43003F0080342
:10574000002B17D0D7F8E03003F02003002B05D151
:10575000D7F8DC3003F00103002B0BD07B681B680B
:1057600008221A627B68D3F8843043F008027B6811
:10577000C3F88420D7F8E43003F40063002B12D080
:10578000D7F8E03003F08063002B0CD07B681B68F7
:105790004FF400621A627B68D3F8843043F0200231
:1057A0007B68C3F884207B68D3F88430002B00F03A
:1057B000FD81D7F8E43003F02003002B0DD0D7F89B
:1057C000E03003F02003002B07D07B689B6E002B9A
:1057D00003D07B689B6E786898477B68D3F88430E9
:1057E000C7F8D4307B681B689B6803F04003402BEC
:1057F00005D0D7F8D43003F02803002B4FD07868B9
:1058000000F001FE7B681B689B6803F04003402B9F
:1058100041D17B681B680833C7F89C30D7F89C30AF
:1058200053E8003FC7F89830D7F8983023F040038A
:10583000C7F8D0307B681B680833D7F8D020C7F88A
:10584000A820C7F8A430D7F8A410D7F8A82041E8BA
:105850000023C7F8A030D7F8A030002BD9D17B683F
:105860005B6F002B13D07B685B6F134A1A657B68F4
:105870005B6F1846FCF7A0FA0346002B17D07B6835
:105880005B6F1B6D7A68526F104698470FE078681F
:1058900000F0A0F90BE0786800F09CF907E0786868
:1058A00000F098F97B680022C3F884207EE100BFF5
:1058B0007CE100BF20010004CF6400087B681B6E00
:1058C000012B40F04C81D7F8E43003F01003002B9B
:1058D00000F04581D7F8E03003F01003002B00F012
:1058E0003E817B681B6810221A627B681B689B687C
:1058F00003F04003402B40F0B6807B685B6F1B6871
:105900005B68A7F8BE30B7F8BE30002B00F05081BE
:105910007B68B3F85830B7F8BE209A4280F04881CF
:105920007B68B7F8BE20A3F85A207B685B6FDB6901
:10593000B3F5807F00F086807B681B68C7F88830ED
:10594000D7F8883053E8003FC7F88430D7F8843060
:1059500023F48073C7F8B8307B681B681A46D7F801
:10596000B830C7F89430C7F89020D7F89010D7F81F
:10597000942041E80023C7F88C30D7F88C30002BF6
:10598000DAD17B681B6808337B677B6F53E8003F85
:105990003B673B6F23F00103C7F8B4307B681B689B
:1059A0000833D7F8B420C7F88020FB67F96FD7F821
:1059B000802041E80023BB67BB6F002BE1D17B68EF
:1059C0001B6808333B663B6E53E8003FFB65FB6D8D
:1059D00023F04003C7F8B0307B681B680833D7F862
:1059E000B020FA66BB66B96EFA6E41E800237B66AA
:1059F0007B6E002BE3D17B682022C3F880207B687C
:105A000000221A667B681B68FB64FB6C53E8003F4E
:105A1000BB64BB6C23F01003C7F8AC307B681B6819
:105A20001A46D7F8AC30BB657A65796DBA6D41E836
:105A300000233B653B6D002BE4D17B685B6F184610
:105A4000FCF74AF97B6802225A667B68B3F8582053
:105A50007B68B3F85A309BB2D31A9BB21946786868
:105A600000F0C2F8A4E07B68B3F858207B68B3F874
:105A70005A309BB2D31AA7F8CE307B68B3F85A30AD
:105A80009BB2002B00F09680B7F8CE30002B00F0D0
:105A900091807B681B68BB63BB6B53E8003F7B63F3
:105AA0007B6B23F49073C7F8C8307B681B681A4679
:105AB000D7F8C8307B643A64396C7A6C41E80023CB
:105AC000FB63FB6B002BE4D17B681B6808337B62B4
:105AD0007B6A53E8003F3B623B6A23F00103C7F84F
